:020000040800F2
:1000000000C0002089010008910400089304000842
:1000100095040008970400089904000800000000F7
:100020000000000000000000000000009B04000829
:100030009D040008000000009F040008A1040008BF
:10004000D5010008D5010008D5010008D501000838
:10005000D5010008D5010008D5010008D501000828
:10006000B1040008D5010008D5010008D501000839
:10007000D5010008D5010008D5010008D501000808
:10008000D5010008D5010008D5010008D5010008F8
:10009000D5010008D5010008D5010008D5010008E8
:1000A000D5010008D5010008D5010008E5040008C5
:1000B000D5010008D5010008D5010008D5010008C8
:1000C000D5010008D5010008D5010008D5010008B8
:1000D000D5010008D5010008D5010008D5010008A8
:1000E000D5010008D501000831050008D501000838
:1000F000D5010008D5010008D5010008D501000888
:10010000D5010008D5010008D5010008D501000877
:10011000D5010008D5010008D5010008D501000867
:10012000D5010008D5010008D5010008D501000857
:10013000D5010008D5010008D5010008D501000847
:10014000D5010008D5010008D501000861050008A7
:10015000D5010008D5010008D5010008D501000827
:10016000D5010008D5010008D5010008D501000817
:10017000D5010008D5010008D5010008D501000807
:08018000D5010008D5010008BB
:10018800002100F004B80C4B5B58435004310B4875
:100198000B4B42189A42FFF4F6AF0A4A00F003B834
:1001A800002342F8043B084B9A42FFF4F9AF02F0EF
:1001B800BDFE00F00DF87047243D00080000002047
:1001C800B0010020B001002028150020FFF7FEBF75
:1001D8007FB502F083FA02F0C5F87E4B7E4C01260B
:1001E8001E7002F0EDFB0A2003F06CFAB0F5A04F88
:1001F80004D07A4D2B68B3F5A04F03D1784B794AD8
:100208001A601AE00A2003F05DFA052802D02B686C
:10021800052B02D1012323700FE00A2003F052FAC4
:1002280045F25553984202D02A689A4204D10023D5
:1002380023700123637000E0A6706B4B1A684AF6BE
:10024800AA239A4208BF01234FF0010008BFE370B8
:1002580003F038FA80B2ADF80E00BDF80E204FF664
:10026800FF7392B29A4233D07D2003F0FFF9002841
:1002780036D0002363702370A370E370BDF80E308E
:100288009BB2013B092B14D8DFE803F005080F13D4
:100298001313131313130123637001E00123E37095
:1002A800BDF80E3001339BB205E00123A37002F0C4
:1002B800F1FB4FF6FF73ADF80E30BDF80E100120BC
:1002C80089B203F0EFF902F0ABFC03F0E3F907E0C1
:1002D8000120ADF80E00BDF80E1089B203F0E2F966
:1002E800002002F047FA012822D1404B42F2107256
:1002F8001A601D46002002F03DFA012818D12B682B
:1003080033B923706370A370394BE07018600FE045
:10031800A278314B002AEDD134490E6841F65831A4
:100328008E42E7D833491A7008705A70DA7098709C
:100338002278294B2F4D012A04D102232B7002F079
:100348009FFC32E0DA785AB1012A04D103232B70DA
:1003580002F080FC29E00022DA7002F069FC24E057
:100368009A7812BB5B78012B03D102232B7002F021
:100378007FFC1B4B204A1B6819680A40B2F1005FDA
:1003880013D11E495A681E4E0A6032601B6883F3F7
:100398000888092003F096F9000B0A2803D041F2D7
:1003A800883001F0FFFF33689847164A0A23137014
:1003B800154A0126137013712E70A67002F0ECFF17
:1003C800124B00931248134A134B314600F038FC85
:1003D800FEE700BFDA010020B00100208001002004
:1003E8001C08002000C0000888010020F40C002030
:1003F8007C010020200800200000FD2F14080020A8
:10040800180800201C020020210800201C010020E0
:1004180020020020200000209400002038B5154B51
:100428001A6812B11A68013A1A60134B1A6812B1A5
:100438001A68013A1A60114C2368254613B12368DB
:10044800013B14E00E4BDA781AB95A780AB91A78CF
:1004580032B10C4B187802F0AFF832232B6038BD5C
:100468009B782BB1074B187802F0A6F86423236019
:1004780038BD00BF000D0020F40C0020FC0C00204B
:10048800B0010020200800207047FEE7FEE7FEE7E5
:10049800FEE770477047704708B502F00BFCBDE8EF
:1004A8000840FFF7BBBF000008B5012002F064FF59
:1004B80078B1012002F06AFF0020064B014618803F
:1004C80002F08EF8044810210122BDE8084003F02C
:1004D800CDBA08BDD60100200000014008B510487B
:1004E800102103F0CCFAC8B10D48102103F0D2FA5C
:1004F800002002F03FF9012805D10A4B1A880A3278
:1005080092B21A8008BD06481021002203F0AEFA04
:1005180000200121BDE8084002F062B808BD00BF14
:1005280000000140D601002010B5094CA37A4BB158
:10053800084B1A6822F006021A6002F0F7FC2046FF
:1005480001F051FB4FF48020BDE8104002F01EBFBF
:100558002002002010ED00E0014801F0C1BC00BFFE
:100568002002002012230B80004870470000002062
:1005780004230B80004870471200002010B5044C7B
:1005880004480A46214600F023FA204610BD00BF61
:1005980027080020503C000808B50A4608B9044856
:1005A80000E00448044900F013FA034808BD00BFFE
:1005B8005D3C00086C3C00082708002008B50A4686
:1005C80008B9044800E00448044900F001FA034867
:1005D80008BD00BF7F3C00088C3C000827080020AD
:1005E80010B5044C04480A46214600F0F1F92046AB
:1005F80010BD00BF27080020993C000810B5044C26
:1006080004480A46214600F0E3F9204610BD00BF21
:1006180027080020A43C000890F8CC350B7090F80F
:10062800CD354B7090F8CF2590F8CE3503EB0223EB
:100638004B8090F8D12590F8D03503EB02238B80BE
:1006480090F8D32590F8D23503EB02239BB2CB80E8
:10065800C0F84031012380F81131704710B580216E
:10066800044600F0CAFE2046002100F0C6FE2046DF
:10067800BDE8104001F098BA73B54B7804460D46B2
:10068800092B00F21C81DFE813F0CD0008011A01E4
:10069800E0001A0174000A001A01BF00930069887B
:1006A8000B0A013B062B00F20A81DFE813F0070072
:1006B8001A0027000801080108010801D0F8EC35E4
:1006C80080781B680DF106019847EB88402B01469E
:1006D80003D094F81231012B3BD10823ADF8063032
:1006E80037E0D0F8E43580789B6A0DF10601984729
:1006F800022343700146C4F8F0052AE0C9B28078A5
:1007080005291FD8DFE801F003070B0F1317D4F8EA
:10071800EC355B6812E0D4F8EC359B680EE0D4F851
:10072800EC35DB680AE0D4F8EC351B6906E0D4F850
:10073800EC355B6902E0D4F8EC359B690DF10601F4
:10074800984705E0D4F8E4350DF10602DB6A9847CE
:100758000146BDF80630002B00F0B580EA88002A73
:1007680000F0B1809A4228BF1A46ADF8062020460C
:1007780068E0AB88002B40F0A280EB88002B40F0AB
:100788009E8090F81231AE78032B06F07F0600F0B9
:10079800968080F81461314600F063FE204600F030
:1007A8006BFD0EB1022300E0012384F812318AE0C8
:1007B800A978464E0129317000F2818090F81231F3
:1007C800022B02D0032B09D079E0002961D0012146
:1007D800032380F8101180F8123111E039B902238F
:1007E80080F8123180F8101100F052FA51E090F8B8
:1007F800101101294DD000F04BFA317884F810110E
:10080800204600F039FA44E0EA88012A57D190F8E6
:100818001231022B04D0032B51D100F5887111E05D
:100828002B490FE090F81231023B012B47D8274B98
:1008380001229A60D0F818210AB103229A6025494A
:100848002046022200F0E4FC3DE06B88012B2DD00D
:10085800022B38D1AA8812F0FF0F34D10369120A8B
:10086800013A5B68042A0FD8DFE802F0030507099C
:100878000B00012206E0022204E0032202E0042227
:1008880000E0052262F30613134A1360012384F87B
:100898001631204600F0F0FC15E090F81231023BCA
:1008A800012B0CD86B88012B0DD10023C4F818310B
:1008B800D4F8E43520469B6829469847E9E720465E
:1008C8002946FFF7CBFE002002B070BDB40100201E
:1008D800B8010020BC010020F008002038B590F8CD
:1008E8001231032B04460D460CD10B79022B09D883
:1008F800D0F8E4359B689847EB882BB9204600F080
:10090800BBFC01E0FFF7AAFE002038BD70B54E78A9
:100918008A88012E04460D46D3B210D027D3032E61
:1009280050D190F81221022A28D0032A48D14A88A7
:100938009AB95E0611D0194600F05FFD0DE090F8F7
:100948001221022A1AD0032A3AD14A88002A39D118
:10095800590608D0194600F06AFDD4F8E435204657
:100968009B6829469847204600F086FC2AE090F8C4
:100978001251022D02D0032D06D021E05A0621D0B3
:10098800194600F03AFD1DE012F0800F4FF02801E3
:100998000D4A10D003F07F0301FB030191F81E31CB
:1009A8000BB1012300E00023D3602046074902224F
:1009B80000F02EFC06E001FB030393F87633EFE723
:1009C800FFF74CFE002070BDB4010020C0010020DC
:1009D80030B5D0B10023DCB20133C51815F8015C7D
:1009E800002DF8D1631C5B0013800B7003234B7040
:1009F8000138022310F8012F3AB15C1CE4B2CA5442
:100A080002330022DBB20A55F4E730BD10B5D0F846
:100A1800E83504461B699847032384F812310020FF
:100A280010BD08B590F8123180F81331042380F80E
:100A38001231D0F8E835DB689847002008BD08B5C2
:100A4800D0F8E435DB6903B19847002008BD08B544
:100A5800D0F8E4351B6A9847002008BD08B5D0F8DF
:100A6800E4355B6A9847002008BD10B5D0F8E83532
:100A780004465B699847012384F81531002010BDAE
:100A8800D0F8E83510B504469B699847D4F8E435A2
:100A980020465B6800219847002084F8150110BDA6
:100AA800002110B50B460446402200F051FC80217D
:100AB80040222046002300F04BFC012384F8123129
:100AC800D4F8E835A0785B689847002010BD13B5C6
:100AD80069460446FFF7A0FD9DF8001001F01F03CA
:100AE800012B0CD006D3022B0ED120466946FFF706
:100AF8000DFF0EE020466946FFF7BEFD09E02046DF
:100B08006946FFF7EBFE04E0204601F0800100F0A3
:100B180074FC002002B010BD70B50446002947D10E
:100B280090F81131022B37D1D0F83821D0F8243180
:100B38009A4211D9C178D21A0129C0F8382104D1B2
:100B4800D0F828110B44C0F828312046D4F82811D1
:100B580092B200F06EFB1FE0D0F83C51B5FBF3F603
:100B680003FB16565EB99D4209D3D0F840319D4229
:100B780005D2324600F05DFBC4F840610CE0D4F8C1
:100B8800E435DB682BB194F81221032A01D1204601
:100B98009847204600F07FFB94F81631012B10D1BE
:100BA800094A236912685A60002384F8163108E05C
:100BB800D0F8E4355B6923B190F81221032A00D1FB
:100BC8009847002070BD00BFF008002010B504460B
:100BD80059BB90F81131032B30D1D0F89023D0F8BD
:100BE8007C339A4214D9C178D21A0129C0F89023CB
:100BF80004D1D0F880131944C0F880139A4228BF52
:100C08001A462046D4F8801392B200F02CFB15E067
:100C1800D0F8E4351B6923B190F81221032A00D1DA
:100C28009847204600F028FB08E0D0F8E4359B6997
:100C380023B190F81221032A00D19847002010BD53
:100C48002DE9F0410446164698460D46069F00F0E9
:100C580027F820462946C4F8E485C4F8E875C4F89E
:100C6800EC6500F027FBD4F8E8351B689847204668
:100C7800BDE8F04100F06AB8D0F8E43510B5044694
:100C88001B689847D4F8E8359B689847002010BD42
:100C980008B5D0F8E4355B689847002008BD000027
:100CA800F7B50120284C014602F0B0FC4FF4C853B8
:100CB8000026032700932046022369468DF8043056
:100CC8008DF805708DF806608DF8076002F006FC57
:100CD800204608210A2202F04BFC20460B210A225A
:100CE80002F046FC0A2220460C2102F041FC0125B4
:100CF8004FF400732046694600938DF805708DF80F
:100D080004608DF806508DF8076002F0E7FB4FF499
:100D180080632046694600938DF806508DF8075089
:100D28008DF8057002F0DAFB0A210A46204602F027
:100D38001FFC29464FF4804002F08CFC8020294695
:100D480002F070FC03B0F0BD0000024007B54FF49C
:100D5800C06002F0B9F943238DF80430032201235F
:100D680001A88DF805308DF806208DF8073002F0BF
:100D7800B5F903B05DF804FB782358430722B0FBAC
:100D8800F2F0002301338342FCD970474FF47A73A1
:100D98005843FFF7F1BF00207047000024230B8061
:100DA800004870476C000020072908B508D8054B93
:100DB800063953F821000449FFF70AFE024808BD26
:100DC800002008BDCC00002027080020074B10B5E4
:100DD80002221A70064B00241C701A71054B1C6005
:100DE8005C6000F035FF204610BD00BF1C020020EB
:100DF80021080020C401002008B500F019FF044BA9
:100E080002221A70034B002018701A7108BD00BF27
:100E18001C0200202108002037B5434A1378042B10
:100E28000146154653D1414C2368002B39D1404B1C
:100E38001A781AB96368012B26D13DE0212A0FD10F
:100E48006268052A20D1DA789978120402EB012227
:100E580059781B790A4402EB0362364B5A622BE03D
:100E6800412A11D16268052A0ED1D8789A780004EF
:100E780000EB02205A781B79104400EB03602D4BDD
:100E8800586200F0F5FE17E00023636023608DF8D8
:100E98000030084601236946ADF80630FFF7DEFB4F
:100EA8000AE0012B08D9244A61681A44214B586A80
:100EB80000EB822000F0F4FE204A00230321636047
:100EC80023602970117153709370D37029E0072B38
:100ED80027D1164B00219960164B5D7F174B05F003
:100EE800040505F0FF0435B106201070187159701B
:100EF8009970D97015E00821117019715C709C7097
:100F0800DC7000F0BEFA00F0A3FEBFF34F8F0C4A6E
:100F18000C4BD16801F4E0610B43D360BFF34F8FF2
:100F2800FEE7002003B030BD1C020020C4010020F1
:100F3800F40800206C000020FEFF3F00210800207C
:100F480000ED00E00400FA0570B50C7814F06004B8
:100F5800054600F02881202C40F046814C78062C6C
:100F680000F21D81DFE814F0F10007003100830072
:100F7800BE00D300D800CA889D4B8AB118780228D1
:100F880001D0052811D149889A4880E80600032134
:100F98001970994B28461971984900F053F923E1C3
:100FA8001A78052A05D0022A03D02846FFF756FBEF
:100FB8001AE1904A0121916006221A708E4B002492
:100FC8005C709C70DC701A710FE1CA888848002A2E
:100FD80044D00478874B022C01D0092C37D14E8895
:100FE8001E605A60844B9EB9042A34BF092202222B
:100FF80082491A715E709E70DE70212302704B70F8
:101008002846412303220E708B7000F001F9C4E0DA
:10101800012E14D0092101701971002478495C70DF
:101028009C70DC70774B486A3344114600EB832090
:1010380000F050FE6F4B01469A882846CAE000240B
:101048000F2202701A715C709C70DC7002E0002440
:101058005C601C602846FFF701FBC6E0664B022176
:1010680001705A709A70DA7019711446BDE06049BF
:101078000B78032B02D0062B19D02FE05D485E4A6F
:1010880043688BB104230B70016813715C4B29B959
:101098005A480078412801D1586A02E0586A564AED
:1010A800012100F02DFE19E00520087012E0514BD7
:1010B8009B68012B06D1504A0720537008701071A5
:1010C800002309E053B94E4A527F520706D5022041
:1010D800494A0870107153709370D3702846464976
:1010E800062216E0424A13780A2B434B04D1022108
:1010F800002411701C7004E00A2111700E221A706D
:1011080000245C709C70DC7019715C716DE038496A
:10111800012200F07DF867E0354A1378991E01290D
:10112800114604D95A1F012A01D9092B5CD1324B27
:10113800002402221C705C709C70DC701A715C7157
:101148002C4B0A701C605C604FE0294A1378981E8B
:10115800012804D9581F012801D9092B0CD10220D4
:101168001070254A0023137053709370D370107158
:101178005371204A13605360214B9B7F03F0100387
:1011880003F0FF0633B1284600F07BF9284600F04B
:1011980070F92AE04888FFF7F9FD344625E0FFF7A3
:1011A8005DFA022421E04B780A2B11D00B2B14D0C6
:1011B800062B1AD14B881B0A212B05D1CA88124944
:1011C800092A28BF092201E021462246284601E0D3
:1011D8000E49012200F01CF807E08B78012B3FF63E
:1011E800E4AE044AD36000E00024204670BD00BF8E
:1011F8001C020020C401002021080020F40800205F
:101208006C000020FEFF3F0087000020D001002076
:1012180038B504460D46C4F83C21C4F838211346B5
:10122800022280F8112100212A4600F0CDF8002082
:1012380038BD10B50C4613460021224600F0C4F80C
:10124800002010BD38B504460D46C4F89423C4F8F0
:1012580090231346032280F8112100212A4600F02A
:1012680098F8002038BD10B50C46134600212246D8
:1012780000F08FF8002010BD10B5002104230446AB
:101288000A4680F811310B4600F09EF8204600F01F
:101298008BFC002010BD10B50021052304460A462A
:1012A80080F811310B4600F074F8204600F07CFC01
:1012B800002010BD10B5044600F036F901230022C5
:1012C80084F8123184F81421234661788A4203F1A4
:1012D800280312D2012183F8F5104020002183F859
:1012E800F420A3F8FA2083F8F710C3F8FC00C3F839
:1012F8000011C3F808110132E7E72346002261789C
:101308008A4203F1280311D20021402083F84C239C
:10131800A3F8522383F84D1383F84F13C3F85403EB
:10132800C3F85813C3F860130132E8E7204600F009
:10133800B1F9204600F060F92046002100F0EEF9EE
:10134800204600F035FA2046BDE8104000F09BB971
:1013580070B5CDB215F0800F01F07F044FF028066C
:1013680015BF06FB040106FB010101F58E7101F5AD
:101378005D71E4B2ED090C704D708A60CB7005B1F7
:10138800CC80022B04BF00230B7100F0A6FA0020CA
:1013980070BD38B501F07F04282505FB040505F567
:1013A8005D714B610023CA608B614B7085F8744393
:1013B800C378012B08BF0A6114B900F03CFB01E0B7
:1013C80000F0B7FA002038BD70B501F07F04282579
:1013D80005FB040505F58E7101264E7085F81C4144
:1013E800CA600A6100228A614B6114B900F023FBCC
:1013F80001E000F09EFA002070BDCBB213F0800F20
:1014080001F07F0210B54FF0280415BF04FB02015C
:1014180004FB010101F58E7101F55D71DB09012401
:101428008C700A704B7000F082FB002010BDCBB2AC
:1014380013F0800F01F07F0210B54FF0280415BF9C
:1014480004FB020104FB010101F58E7101F55D71D8
:101458000024DB098C700A704B7000F07CFB20467E
:1014680010BD0269002361F30A1311680B4313606E
:10147800704703695A686FF341025A600320FFF707
:1014880085BC03695A6842F002025A600320FFF7DC
:101498007DBC000037B50023104C0193054603209E
:1014A800FFF76AFC2B68013C1A69019213D0019A74
:1014B800002AF4DA019A42F001020192019A1A61B3
:1014C800064A19690191013A02D00199C907F8D46D
:1014D8000320FFF751FC002003B030BD410D03008D
:1014E80030B5C4786CB900EB82000333D0F8D05023
:1014F8009B1022469A4204D051F8220028600132FB
:10150800F8E7002030BD10B50332D0F8D040921073
:10151800002393424FEA830004D0206841F8230057
:101528000133F6E7084410BD0122F0B500238270AC
:1015380001294FF04002C37082800CD10823037048
:10154800042343704FF4A073C38002230372C17253
:101558004FF0A04309E041B90C2303700623437000
:101568004FF4A063C380234BC17203F50062457832
:101578000261C360024619460024AC4201F120060C
:1015880002F1040208D201F5106701F53061116516
:10159800576101343146F0E7047803F5806242610F
:1015A80003EB441503F58862C0F8CC2005F5A06567
:1015B80003F5A0620146AA4201F1040103D0C1F873
:1015C8008C202032F7E703EB043403F5805204F54E
:1015D80080540146A24201F1040104D0C1F8CC2094
:1015E80002F58052F6E703F56063C0F80C3100207D
:1015F800F0BD00BF0000044038B5037A012B054652
:101608004FF0000450F80C2F1ED1936B697A64F3E5
:10161800104309B143F480139363D3686FF38613BF
:101628006FF396536FF351436FF3D343D360FFF7D0
:1016380031FFEB78012B19D1052363F34404EB68E0
:1016480044F020049C6011E0D36843F04003D36069
:10165800FFF720FF6B7AEA68002B0CBF4FF450238A
:101668004FF4E81393631420FFF790FBEB78012BFA
:1016780007D1EB689C68052262F3440444F0200417
:101688009C60002038BDC3689A6842F001029A60E5
:1016980000207047C3689A6822F001029A6000200F
:1016A8007047000007B500230193019B43F0200316
:1016B8000193019B61F38A130193C268019B136133
:1016C800074B11690191013B02D001998906F8D4B1
:1016D8000320FFF751FB002003B05DF804FB00BFB7
:1016E800410D030007B500230193019B43F010034C
:1016F8000193C268019B1361074B11690191013B7A
:1017080002D00199C906F8D40320FFF735FB002061
:1017180003B05DF804FB00BF410D0300C26808B5C3
:10172800D36801296FF35D736FF39E7302D143F0A1
:10173800005302E009B943F08043D3603220FFF739
:1017480025FB002008BDC368586900F0010080F03F
:1017580001007047C3685A69986910407047036967
:101768001A6861F301021A607047000010B5C26878
:1017780000236FF0804193615161C2684FF0FF34DC
:101788005460516109499161C178994208BF102399
:1017980043F0804343F47013916943F4605343F07A
:1017A8000C030B439361002010BD00BF00080080AC
:1017B800D0F80C3170B500251D6003691A6865F30F
:1017C800CC221A60C37A012B04462E4616D1032177
:1017D800FFF7C5FFE368A02262F31F455A6262F370
:1017E8000F054FF4A07262F30F066FF31F469D6258
:1017F800C3F80461C3F80861C3F80C6110212046DE
:10180800FFF750FF2046FFF76DFF226900234FF0D6
:10181800FF311361536191612169D3616278934209
:101828000FD204EB83020133926910680028ACBF21
:1018380000204FF09040106000201061FF20906061
:10184800ECE70023627893420FD204EB8302013362
:10185800526D10680028ACBF00204FF09040106017
:1018680000201061FF209060ECE70B6943F480735F
:101878000B61E378012B04D1044B402262F35943F6
:101888000B632046FFF772FF002070BD03010100C3
:1018980003699B68C3F34103022B05D0032B05D0D2
:1018A800012B03D0032070470120704702207047A6
:1018B8000369816910B59C680A68C4F3410002286D
:1018C80006BF032060F30A026FF30A020A605A682F
:1018D80042F480725A60002010BD30B54D780B7804
:1018E800012D4FF0000200EB830405D105FA03F344
:1018F800A46963F30F0205E0012505FA03F3646D9B
:1019080063F31F4223681D040DD48D6865F30A0331
:10191800CD78C98865F3934361F3995343F08053B5
:1019280043F4004323600369D9690A43DA6100205C
:1019380030BDF8B54E780A4609785369012E00EB98
:10194800810145D18D6929682C6963F3120413B9A3
:1019580066F3DC440BE096689F19013FB7FBF6F687
:1019680066F3DC44D678012E08BF66F35E742C61FA
:10197800C4781578012C05D100EB85051469AD698B
:101988006C610AE0D478012C07D033B104690127CF
:10199800666B07FA05F535436563D478012C07D1E2
:1019A8000469A468E40554BF41F0005141F0805136
:1019B800147800EB840441F00441A4692160D178D3
:1019C800012936D1D16812789BB2FFF789FD30E042
:1019D8004E6D9568316834692BB965F3120401239B
:1019E80063F3DC440AE02B44013BB3FBF5F363F3F8
:1019F800DC44C3F309035D4365F312043461C3781F
:101A0800012B05D1137800EB83035C6D13696361C7
:101A1800D378012B06D1537913B141F0005101E07D
:101A280041F08051137800EB830041F00441436D8D
:101A380019600020F8BDF7B591F801C04A69BCF1FA
:101A4800010F3DD18469236826690096F5B2C6F373
:101A5800074742B962F306056CF3C4078DF80050D6
:101A68008DF802700FE08E68B2428ABF66F30605F1
:101A780062F306054E6101223E4662F3C4068DF804
:101A880000508DF80260009A2261C278012A05D1BF
:101A98000A7800EB820295690A696A6143F0044397
:101AA8002360C378002B3FD14B69002B3CD00369DE
:101AB8000A78586B012101FA02F202435A6333E0B3
:101AC8000B7800EB83035C6D236825690095EFB202
:101AD800C5F307468D684AB9012265F3060762F324
:101AE800C4068DF800708DF802600BE03A4665F385
:101AF80006024D618DF800203546012262F3C405C7
:101B08008DF80250009A2261C278012A05D10A781C
:101B180000EB8202546D0A6962610A7800EB820068
:101B280043F00443426D1360002003B0F0BD4B78CE
:101B3800012B0B7800EB830006D182691368002B18
:101B480004DA43F0804301E0426D136843F4001364
:101B58001360002070474B78012B0B78C97800EB95
:101B68008300A1F102010CBF8269426D136801294B
:101B78006FF3555398BF43F08053136000207047AC
:101B880003699A69D8691040000C704700EB81011D
:101B980002694B6D9B6850691840704703699869E2
:101BA800DB69184080B2704782B000230093C023DD
:101BB8008DF8033001224FF0000362F3C4038DF85F
:101BC800023018238DF80030436D009A1A61C278EC
:101BD800012A06D100F2CC5058611A684FF08022D1
:101BE8001A6002B07047837A63B103699B68DB07A8
:101BF80008D5D0F80C31D0F80C216FF341036FF3FE
:101C0800000313607047000038B5084C23689B69CF
:101C18000546984728B1636828469B69984710B9D4
:101C28000120C0B238BD022038BD00BFC40000206A
:101C3800064A13685B6810B5144603B19847636891
:101C48005B6803B19847002010BD00BFC4000020A6
:101C5800064A13689B6810B5144603B19847636831
:101C68009B6803B19847002010BD00BFC400002046
:101C780010B50446FFF7C8FF04F17843B3F5404FA9
:101C880009D3012807D8054B53F82030DB6813B176
:101C98002046984710BD012010BD00BFC400002099
:101CA80038B504460D46FFF7AFFF04F17843B3F5A6
:101CB800404F0AD3012808D8054B53F820301B6938
:101CC8001BB120462946984738BD012038BD00BFC2
:101CD800C400002038B504460D46FFF795FF0128DB
:101CE80008D8054A52F820305B691BB120462946BE
:101CF800984738BD014838BDC4000020F4080020CA
:101D080038B50D461446FFF77FFF01281DD8104B44
:101D180015F0010553F820200BD0D269627053F8F2
:101D28002020527FA27053F820309B7FE370002060
:101D380038BD126A627053F8202092F82120A270F0
:101D480053F8203093F82230F0E7012038BD00BF67
:101D5800C4000020704700F17840B0F5801F34BF00
:101D680000200120704708B501F016FB002008BDCF
:101D780008B501F01FFB002008BD00008B0770B5F7
:101D880006460D4601D00B4601E000240AE04FF656
:101D9800FC722A4004329342F7D2084AFF21995430
:101DA8000133F4E7AC4204EB060005D2034BE158DB
:101DB80001F076FB0434F5E7002070BDF40800203C
:101DC80008B5214B984201D8002030E01F4B9842BB
:101DD80001D808202BE01E4B984201D8102026E09D
:101DE8001C4B984201D8182021E01B4B984201D87F
:101DF80020201CE0194B984201D8282017E0184BE6
:101E0800984201D8302012E0164B984201D8382069
:101E18000DE0154B984201D8402008E0134B98423A
:101E280001D8482003E0124B984205D850200221DF
:101E380001F000FB002008BDB0F1016F01D258206D
:101E4800F5E7012008BD00BFFF3F0008FF7F00083D
:101E5800FFBF0008FFFF0008FFFF0108FFFF03089E
:101E6800FFFF0508FFFF0708FFFF0908FFFF0B0832
:101E7800FFFF0D0800207047B0F5001F34BF002099
:101E88000120704708B501F021F8002008BD08B509
:101E980000F069FF002008BD08B503468AB2034870
:101EA800194600F07AFF002008BD00BFF4080020A2
:101EB80010B5044C03468AB22046194600F0CBFF01
:101EC800204610BDF40800207047704770477047DF
:101ED8007047002000F04CBB002000F05BBB000006
:101EE8002DE9F04F85B00446FFF72DFC08B9002016
:101EF8001EE22046FFF72EFC06460028F7D0C0F366
:101F0800C04000284FD02046FFF73AFE27468046BB
:101F1800A1464FF0000AB8F1000F43D018F0010FA6
:101F280038D05FFA8AFB59462046FFF72FFEC107D3
:101F3800054620D57B6D01259D60E278AA4207D130
:101F48001A69D9F87C33C2F312029B1AC9F88C3388
:101F5800A64B1B6820461B6859469847E378012B17
:101F680009D1BAF1000F06D194F81131052B02D12D
:101F78002046FFF719FEAA0702D57B6D02259D6052
:101F88002B0707D5994B1B6820469B6898477B6DA4
:101F980008259D600AF1010A4FEA5808043709F13B
:101FA8002809B8E70120750340F1A3802046FFF710
:101FB800F5FDA046824627464FF00009BAF1000F0A
:101FC80000F096801AF0010F00F08A8023695FFA0A
:101FD80089FB19695D6B04EB8B0225FA0BF5926995
:101FE800ED019268EDB20D431540E8071CD55A6B18
:101FF800012505FA09F122EA01025A63D8F81830D6
:102008009D607A4B1B6820465B6859469847E37881
:10201800AB4209D1B9F1000F06D194F81131042B64
:1020280002D12046FFF7C0FD290703D5D8F818309C
:1020380008259D60EA0603D5D8F8183010259D605C
:102048006B0603D5D8F8183040259D60A80703D53E
:10205800D8F8183002259D60290641D5D7F83431C3
:10206800D7F83021D21AD7F824319A4238BF13460C
:1020780003F1030CD8F818309B694FEA9C0C9BB20B
:10208800634529D9D7F83451D7F830319D4223D246
:1020980013B3D7F82421D7F828115D1B954228BF20
:1020A800154605F1030C4FEA9C0CABB220465A4684
:1020B800CDF804C0FFF714FAD7F828312B44C7F835
:1020C8002831D7F834311D44C7F83451D8F81830BE
:1020D800DDF804C09B69D2E7D8F8183080259D60E8
:1020E80009F101094FEA5A0A08F10408283765E797
:1020F8000120B20702D5E36802225A61002E19DADC
:10210800A37A43B1D4F80C31D4F80C216FF341030E
:102118006FF30003136023695A6822F001025A60C2
:10212800324B1B6820469B699847E3684FF0004292
:102138005A61012033052DD500238DF80F3094F80E
:1021480012318DF80F30294B1B6820465B69984780
:1021580023699A68E3684FF400615961A37AC3B1AF
:10216800D70716D594F81531012B12D19DF80F30E9
:10217800032B0ED1D4F80C311A6842F001021A6010
:102188001A6842F003021A60194B1A6942F00602F3
:102198001A610120350708D5144B1B682046DB68F7
:1021A8009847E36808225A610120F10636D5E368AA
:1021B8009A6922F010029A611F6A282507F00F0316
:1021C80005FB0345C7F34343022B05F55D7511D0A5
:1021D800062B1DD1204604F2CC510822FFF793F9B3
:1021E800AB69C7F30A173B44AB6111E03C00002020
:1021F80000ED00E0C7F30A1757B13A462046E968F0
:10220800FFF781F9EB683B44EB60AB691F44AF61B2
:10221800E3689A6942F010029A610120F20435D508
:1022280023695A68002522F001025A60204629468F
:10223800FFF738FA23462A4661788A4203F10403F5
:1022480006D25869FF218160186D01328160F3E779
:10225800236901274FF0FF3267F30F059A6167F38F
:102268001F450B22DD615A611A611A686FF30A1261
:102278001A602046FFF798FCE3684FF480525A61D1
:102288002D4B1B6820461B6998473846B3041DD55B
:102298002046FFF70DFBE3682046DD68FFF7F8FAF4
:1022A800032806D10023A3704FF40073A3800923E9
:1022B80004E00123A3704023A380052363F38D2545
:1022C800E3684FF40052DD6001205A61F70209D536
:1022D800194B1B682046DB699847E3684FF4801266
:1022E8005A610120B50209D5134B1B6820461B6AA9
:1022F8009847E3684FF400125A610120710009D52C
:102308000D4B1B6820465B6A9847E3684FF0804294
:102318005A61012072070BD5E3685D686B0704D525
:10232800054B1B6820469B6A9847E36801205D605F
:1023380005B0BDE8F08F00BF3C000020BFF34F8F11
:10234800044A054BD16801F4E0610B43D360BFF345
:102358004F8FFEE700ED00E00400FA054FF44070EF
:1023680000F0B2BE0C4B1A684FF47A73B2FBF3F26A
:10237800013AB2F1807F0DD2084B5A60084AF02129
:1023880082F823100021996007211960D02382F870
:1023980023307047FEE700BF9401002010E000E002
:1023A80000ED00E010B5044645F2555001F0F2F892
:1023B800062001F0F5F82820604340F6FF73000A74
:1023C800984228BF184680B201F0F0F801F0F4F8FE
:1023D800BDE8104001F0F8B8082812D8012907D143
:1023E8000A4B0B4A53F8203032F810201A830AE0BF
:1023F80049B9064B064A53F8203032F810205A8360
:1024080001E0FF2000E0002040B2704738010020C2
:10241800EC3B000837B5104D05EB8003044601215D
:10242800186901F0F3F835F81430009301238DF89A
:10243800043002238DF80530084B002553F824009A
:102448008DF80650694601F049F820462946FFF7FD
:10245800C3FF03B030BD00BFEC3B000838010020CB
:1024680070B5012088B0014601F0F4F868462C4C9C
:1024780001F0ACF9684601F0A9F942F20F730025A2
:102488006946019320465423ADF80030ADF8085052
:10249800ADF8025001F05CF903A801F0ABFA602333
:1024A8000126ADF80C302046022303A9ADF81830F8
:1024B800ADF80E600595ADF81C5001F0A9F920465D
:1024C800294601F0A1FA204603A901F0D9F92046CE
:1024D800294601F0A1FA204603A901F015FA204681
:1024E800294601F0A3FA204603A9ADF80C50ADF82F
:1024F8000E600595ADF8185001F048FA20462946B7
:1025080001F09CFA2046314601F069F9204631462F
:1025180001F071F92046314601F09AFA08B070BD11
:102528000000014073B5104E85007319044606EB90
:102538004406186B012101F069F8B6F840300093A1
:1025480000238DF8063002238DF80530074B1D4413
:10255800032C94BF01220222286A8DF804206946C0
:1025680000F0BCFF02B070BDEC3B00083801002051
:10257800032809D8054B064A03EB800302EB400009
:102588001B6AB0F840201A83704700BF380100204A
:10259800EC3B0008032809D8054B064A03EB8003E7
:1025A80002EB40001B6AB0F840205A83704700BF16
:1025B80038010020EC3B000803280BD8064B0749DC
:1025C80003EB800301EB40001B6AB0F840105A6926
:1025D8004A405A61704700BF38010020EC3B0008B0
:1025E80073B5104C04EB40040E46054694F84C10A5
:1025F80094F8480001F052FAB4F85040204600F030
:10260800B5FE00238DF80430074B00941D4468463E
:1026180095F832308DF805308DF8066000F06CFEC4
:1026280002B070BDEC3B0008380100202DE9FF41E5
:10263800264F4FEA8008044607EB080307EB4407D8
:10264800586D0D46012100F0E1FFB7F85C300293A8
:102658001F4B1B5D8DF80C3002238DF80D301D4B80
:102668001A19434492F83420986B8DF80F200026ED
:1026780002A98DF80E6000F031FF012D23D1102141
:102688003246154801F0F2F91B238DF8043001A8F1
:1026980005238DF805308DF806608DF8075000F099
:1026A8001DFDB7F860308DF8043001A806238DF8B9
:1026B80005308DF806608DF8075000F00FFD2046B4
:1026C8002946FFF78DFF04B0BDE8F081EC3B000818
:1026D800D4010020380100200000014010B501217C
:1026E8004FF0805000F0AAFF012000F075FF09208C
:1026F80000F0E8FF4AF2A553984207D109204FF0AD
:10270800FF3100F0CFFF00F06DFFFEE7174B5A686E
:1027180042F4C0525A60A3F54C33A3F50473002465
:10272800DA6842F08072DA60114B5C601A6842F035
:1027380001021A60FFF712FEE0B20134FFF76AFEE9
:10274800082CF9D1FFF78CFE0020FFF7EBFE0120E3
:10275800FFF7E8FE0220FFF7E5FE0320FFF7E2FEA1
:1027680000200146BDE81040FFF760BF002004E0EC
:10277800001000E0054A064B02EB800203EB400321
:10278800906BB3F85C1000F0E9BE00BF3801002080
:10279800EC3B000870B5044690B00E464FF40010AC
:1027A8000121154600F032FF124B02934FF480626C
:1027B80000230792012C4FF44032039606930893A6
:1027C80009930A930B9207D10B480193049305953B
:1027D80000F0BAFC084808E054B9402307480194BF
:1027E8000493059500F0B0FC044801A900F032FDFF
:1027F80010B070BD00380040586002407060024060
:1028080010B504462146044800F04EFD2146034811
:10281800BDE8104000F048BD5860024070600240BA
:1028280008B5012000F024FC094A0A48138823F05F
:1028380040031B041B0C1380074B1B889BB243F0FF
:10284800400313804FF48051BDE8084000F08EBE6D
:1028580000380040000402400E0D002008B505486D
:102868004FF4805100F080FE0120BDE8084000F0E0
:1028780023BC00BF0004024008B5022000F0F8FBAA
:10288800094A0A48138823F040031B041B0C1380D1
:10289800074B1B889BB243F0400313804FF4007131
:1028A800BDE8084000F062BE003800400004024065
:1028B8000C0D002008B506484FF4007100F054FED6
:1028C800022000F0F9FBBDE8084001F071B900BF33
:1028D80000040240F0B5022089B02F4D012100F01C
:1028E80095FE4FF480400121002400F0A7FE022647
:1028F8004FF40053284601A901938DF809608DF81B
:1029080008608DF80A4000F0E9FD4FF400432846BE
:1029180001A9019300F0E2FD4FF48043284601A984
:1029280001938DF808408DF80B404FF4007700F0C4
:10293800D5FD284601A98DF8096001268DF80A40C1
:1029480001978DF8086000F0C9FDFFF7B3FFADF8F7
:102958000C40ADF81040ADF81240ADF81440ADF899
:102968001840ADF81A400D4CADF816704FF482734C
:10297800ADF80E302046072303A9ADF81C3000F04F
:10298800B1FE2288064B92B2204631461A8000F0EA
:10299800C8FE09B0F0BD00BF000402400038004086
:1029A8000C0D002020B105484FF4805100F0DEBD29
:1029B80002484FF4805100F0D7BD00BF000002402C
:1029C800094B9B797BB1094B1A68094B1A64094A70
:1029D80012685A64084A12689A64084A1268DA64E3
:1029E800074A12681A657047D40100200080000861
:1029F8003801002004800008088000080C800008C6
:102A08001080000810B51C4B9B799BB300F0C4FCE8
:102A1800F12000F0D7FC1020022100F00BFD09285E
:102A280027D1164C1648216C00F03AFD09281FD111
:102A38001448616C00F034FD092818D11248A16CC3
:102A480000F02EFD092811D11048E16C00F028FD96
:102A580009280AD10E48216D00F022FD092803D16A
:102A6800BDE8104000F0A6BCFEE7FEE7FEE7FEE783
:102A7800FEE7FEE710BD00BFD401002038010020AA
:102A88000080000804800008088000080C80000806
:102A98001080000810B5214C092384F8583000F044
:102AA8007BFCF12000F08EFC0221182000F0C2FC13
:102AB800022184F85800202000F0BCFC022184F890
:102AC8005800282000F0B6FC022184F85800302075
:102AD80000F0B0FC022184F85800382000F0AAFC6D
:102AE800022184F85800402000F0A4FC022184F858
:102AF8005800482000F09EFC022184F8580050201D
:102B080000F098FC022184F85800582000F092FC4C
:102B180084F85800BDE8104000F04CBC3801002093
:102B280070B51A4D064600F0D1F92023EB6000235A
:102B38002B612869EB68154C984207D206EB0030E8
:102B480000F011F9236901332361F2E7104B636147
:102B5800A6616A690F4B0D4C9A4215D852F8043B8E
:102B68000D486261C3F307224270C3F30742E36171
:102B7800037082701B0EA169C370042200F00DF966
:102B8800A3690433A361E4E770BD00BFD40100204A
:102B980000C00008FEFF0F08080D0020F8B51B4C08
:102BA800054600F093F9FFF775FF194B6361A561BE
:102BB80000F0F2FB27467B69164A144C934221D851
:102BC800154E96F85830092B1CD1144DA16928468A
:102BD800042200F040F9A369A97860690433A3616D
:102BE8006B78090441EA03212B781943EB7841EA11
:102BF8000361E16100F054FC636986F8580004330E
:102C08006361D8E7BDE8F84000F0D4BBD4010020E8
:102C180000C00008FEFF0F0838010020080D002042
:102C2800024B0022DA64FFF7EDBE00BF3801002036
:102C380008B5074B4FF4A0449C64FFF7E3FE0A2055
:102C4800214600F02FFD0020FFF7ACFEFFF776FBD2
:102C58003801002008B54FF40030FFF79FFF034B01
:102C68004FF0FF321A65FFF7E3FF00BF380100207D
:102C780008B54FF48020FFF791FFFFF7D9FF000058
:102C88000B4C08B54FF4802045F25555FFF748FF27
:102C9800A564FFF7B7FE0A20294600F003FD4FF4AC
:102CA800C020FFF77BFF0123E364FFF7C1FF00BFEC
:102CB80038010020024B5A6A01325A62704700BF3D
:102CC800D401002010B504460A48022100F03AFD5C
:102CD8000028F9D00748214600F032FD05480121B7
:102CE80000F030FD0028F9D0024800F026FDC0B2FF
:102CF80010BD00BF0038004008B5FFF7BDFD062035
:102D0800FFF7E0FFBDE80840FFF7D4BD08B5FFF7BF
:102D1800B3FD0520FFF7D6FFFF20FFF7D3FFC3075A
:102D2800FAD4BDE80840FFF7C5BD38B50D460446DE
:102D3800FFF7E2FFFFF7A0FD0220FFF7C3FFC4F390
:102D48000740FFF7BFFFC4F30720FFF7BBFFE0B260
:102D5800FFF7B8FF2846FFF7B5FFFFF7ABFDBDE863
:102D68003840FFF7D3BF10B50446FFF7C5FFFFF79C
:102D780083FD2020FFF7A6FFC4F30740FFF7A2FF5B
:102D8800C4F30720FFF79EFFE0B2FFF79BFFFFF7B2
:102D980091FDBDE81040FFF7B9BF2DE9F843CB0717
:102DA80005460C46164607D5471C08462978FFF7FE
:102DB800BCFF0134013E3D4636F0010840D0FFF724
:102DC8009BFFFFF759FDAD20FFF77CFFC4F30740D9
:102DD800FFF778FFC4F30720FFF774FFE0B2FFF7AF
:102DE80071FF2878FFF76EFF6878FFF76BFFFFF732
:102DF80061FDFFF78BFF05F102094F460237C7EB6C
:102E0800090343448BB1FFF737FDAD20FFF75AFFA5
:102E180017F8020CFFF756FF17F8010CFFF752FFDF
:102E2800FFF748FDFFF772FFE8E7FFF743FDFFF7FD
:102E380023FD0420FFF746FFFFF73CFDC8EB06061D
:102E48003EB108EB040015F80810BDE8F843FFF799
:102E58006CBFBDE8F88370B50D4616460446FFF70B
:102E68000BFD0320FFF72EFFC5F30740FFF72AFFEE
:102E7800C5F30720FFF726FFE8B2FFF723FFA519E0
:102E8800AC4205D0FF20FFF71DFF04F8010BF7E760
:102E9800BDE87040FFF70EBD70B5FFF7EDFC9F2051
:102EA800FFF710FFFF20FFF70DFF0446FF20FFF795
:102EB80009FF0546FF20FFF705FF2D020646FFF72D
:102EC800F9FC45EA0440304370BD000008B5FFF73F
:102ED80001FDFFF7D1FC0420FFF7F4FEFFF7EAFC41
:102EE800FFF7DAFF104B984202D04C3B984219D1B9
:102EF800FFF7C2FC8020FFF7E5FEFFF7DBFCFFF7DA
:102F0800BBFC5020FFF7DEFEFFF7D4FCFFF7B4FC54
:102F18000120FFF7D7FE0020FFF7D4FEBDE80840E8
:102F2800FFF7C8BC08BD00BF8D25BF003C4B1A6821
:102F380042F001021A6000229A60196821F0847137
:102F480021F48031196037495960196882B021F439
:102F580080211960DA60009201921A6842F4803286
:102F68001A602F4B1A6802F400320192009A01325B
:102F78000092019A1AB9009AB2F5A04FF1D11B68D4
:102F880013F4003318BF01230193019B012B0CD0CC
:102F9800234B9A6822F400029A60234AC3F88420DB
:102FA8001A6842F080621A6030E01D4B1A6C42F0D9
:102FB80080521A641D4A116841F4404111609A68B0
:102FC8009A609A6842F400429A609A6842F4A05261
:102FD8009A60174A5A601A6842F080721A60196833
:102FE8000F4A8901FBD5134B40F2056119609368BC
:102FF80023F003039360936843F002039360084B44
:103008009B6803F00C03082BF9D1C1E71A68120179
:10301800FCD5094B4FF000629A6002B0704700BFC0
:10302800003802401030002400300050007000408A
:1030380008544007003C024000ED00E0BFF35F8FFA
:103048000A4B1A6882420FD0BFF35F8F53E8002FF4
:10305800002A03D143E800010029F7D1BFF35F8FAD
:1030680014BF00200120704701207047180200207B
:1030780010B504462046FFF7E1FF0028FAD010BD3E
:1030880010B50C4BBFF35F8F1A6882B10022BFF3F3
:103098005F8F53E8001F814203D143E80024002CCE
:1030A800F7D1BFF35F8F14BF0020012010BD0120AE
:1030B80010BD00BF1802002010B504462046FFF7D7
:1030C800DFFF0028FAD010BD40F0BF60024B40F48B
:1030D8000030D860704700BF00ED00E0C278037888
:1030E80010B50AB3164A4478D268D243C2F3022212
:1030F800C2F10401C9B204FA01F10F2444FA02F240
:103108008478C9B222400A4303F1604303F561435E
:103118001201D2B283F8002303780122590903F07F
:103128001F0302FA03F306E05909012203F01F0303
:1031380002FA03F32031034A42F8213010BD00BFE0
:1031480000ED00E000E100E0036823F00103036004
:103158000023036043608360C360036121234361EC
:10316800294B984217D0294B98421BD0284B98429C
:1031780020D0284B984225D0274B98422AD0274B5D
:1031880098422ED0264B984232D0264B984236D0C1
:10319800254B984203D13D2243F8082C7047234B16
:1031A800984204D14FF4746243F8202C7047204BA6
:1031B800984204D14FF4741243F8382C70471D4BD1
:1031C800984204D14FF0746243F8502C70471A4B60
:1031D800984203D1194A43F8642C7047184B984217
:1031E80003D1184A43F87C2C7047174B984203D1F7
:1031F800164A43F8942C7047154B984203D14FF068
:103208003D5243F8AC2C70471060024028600240E1
:10321800406002405860024070600240886002408E
:10322800A0600240B8600240106402402864024076
:103238004064024058640240706402403D0000202F
:1032480088640240400F0020A064024000003D2036
:10325800B86402400268134B10B51340CC680A6882
:1032680014434A6914438A691443CA6914430A6AAD
:1032780014434A6A14438A6A14434A6B14438A6B98
:1032880022431343036044690A6BCB6A24F00704A2
:103298001343234343610B6943604B6883608B6826
:1032A800C36010BD3F801CF0036811B143F00103F7
:1032B80001E023F00103036070470B0611D5436951
:1032C8004AB143F080038029436114D0036801F0B8
:1032D8001E0119430EE023F080038029436104D1C5
:1032E8007047802907D0002AF0D1036801F01E0139
:1032F80023EA01010160704783790168027930B5DA
:1033080043B3194B1D68CC4325401D605D6802F12D
:10331800804202F59E322C405C60146821431160A3
:1033280002689C68D1430C409C60DC682140D960ED
:103338004179102906D1996811439960D9680A43DF
:10334800DA6030BD01F1804303F59E3319680A4302
:103358001A6030BD02F1804303F59E331A6822EAF1
:103368000101196030BD00BF003C0140014B5861AC
:10337800704700BF003C0140034B5B6918420CBF1B
:1033880000200120704700BF003C0140014B5861FC
:10339800704700BF003C0140044B1A69002A04DA58
:1033A800034A5A6002F188325A607047003C024072
:1033B80023016745024B1A6942F000421A617047BF
:1033C800003C0240014BD860704700BF003C0240FF
:1033D8000E4BDA68D00310D4DA68D1060FD4DA6855
:1033E800D2050ED4DA6812F0EF0F0CD1DB6813F0B7
:1033F800020F0CBF092008207047012070470620E3
:103408007047022070470720704700BF003C024009
:1034180007B509238DF80730FFF7DAFF8DF80700A5
:103428009DF80730012BF7D09DF8070003B05DF831
:1034380004FB000070B5064641B1012908D00229F5
:1034480014BF4FF440754FF4007503E00D4601E0DA
:103458004FF48075FFF7DCFF09281ED10F4C236954
:1034680023F44073236121690D432561236923F007
:10347800F8032361236943F002031E43266123698D
:1034880043F480332361FFF7C3FF236923F002036A
:103498002361236923F0F803236170BD003C0240D7
:1034A80070B505460E46FFF7B3FF092813D10A4C3D
:1034B800236923F440732361236943F40073236170
:1034C800236943F0010323612E60FFF7A1FF2369FD
:1034D80023F00103236170BD003C02402DE9F04157
:1034E8000F68002301229A4002EA0705954230D16D
:1034F8005A00032406689440E443264006600E7987
:10350800D0F800C006FA02F8013E48EA0C0C012E79
:10351800C0F800C014D8866891F805C026408660B7
:1035280086680CFA02FC4CEA06068660466826EABB
:10353800050545608D7946689D40ADB235434560C7
:10354800C5682C40C460CD79C46805FA02F22243EC
:10355800C2600133102BC5D1BDE8F081036919425F
:103568000CBF0020012070470183704741837047DA
:1035780001F00703C90800EB810010B59B00046A3D
:103588000F21994024EA01010162016A9A4011431E
:10359800016210BD014B1860704700BF0030004049
:1035A800014B5860704700BF00300040014B9860E5
:1035B800704700BF00300040024B4AF6AA221A604A
:1035C800704700BF00300040024B4CF6CC421A60F6
:1035D800704700BF00300040014B1860704700BFC3
:1035E80020000E42074B1A6842F004021A601A685B
:1035F80042F002021A60044B1A6942F004021A618E
:1036080030BF70470070004000ED00E0044B1A6BBB
:1036180009B1104301E022EA00001863704700BFB7
:1036280000380240044B5A6B09B1104301E022EA0A
:1036380000005863704700BF00380240044B1A6C02
:1036480009B1104301E022EA00001864704700BF86
:1036580000380240044B5A6C09B1104301E022EAD9
:1036680000005864704700BF003802404309012B2E
:10367800074A01D1136803E0022B0CBF136F536F85
:1036880000F01F0023FA00F000F00100704700BFAF
:1036980000380240024B5A6F42F080725A677047F6
:1036A8000038024082B000230193054B0193019B2F
:1036B80003EB80000190019B196002B0704700BFC6
:1036C8005028004082B000230193054B0193019BD1
:1036D80003EB80000190019B186802B0704700BF9F
:1036E800502800400B88028810B54C8823438C88EA
:1036F8002343CC8823430C8923434C8923438C8957
:103708002343CC8902F44152234313439BB20380E1
:10371800838B23F400631B041B0C83830B8A0382B3
:1037280010BD038819B19BB243F0400303E023F0B6
:1037380040031B041B0C03807047808980B27047CC
:1037480081817047038919420CBF0020012070470E
:103758001C4A038890429BB212D002F580629042C4
:103768000ED0B0F1804F0BD0A2F58032904207D036
:1037780002F58062904203D002F58062904203D144
:103788004A8823F0700313430F4A904208D002F589
:103798008062904204D023F440730A899BB2134399
:1037A80003804B68C3620B880385064B984203D09D
:1037B80003F58063984201D18B7A038601238382C3
:1037C800704700BF00000140001000404FF0FF3379
:1037D800436000230380038143808372704703881A
:1037E80019B19BB243F0800303E023F080031B046C
:1037F8001B0C03807047038819B19BB243F0010387
:1038080003E023F001031B041B0C03807047000036
:10381800038C23F001031B041B0C038470B5038C79
:103828008488028B0D884E8822F073021204120CD1
:103838002A438D8923F002031B043543ADB21B0CC8
:103848002B430E4DA842A4B203D005F58065A842CB
:103858000ED1CD894E8A23F008032B438D8823F09F
:1038680004032B430D8A354324F44074ADB22C4332
:10387800848002838A684263038470BD000001402B
:10388800038C23F010031B041B0C0384038C828815
:1038980030B5048B0D8824F4E6442404240C23F06A
:1038A800200344EA05241B048D891B0C43EA0513F5
:1038B8004D8843EA0513134DA84292B2A4B29BB2B5
:1038C80003D005F58065A84215D1CD8923F0800382
:1038D8009BB243EA05134FF6BF751D408B8845EA36
:1038E80003130D8A22F4406242EA85024D8A42EAB5
:1038F80085029BB292B282808A68048382630384C1
:1039080030BD00BF00000140038C23F480731B040A
:103918001B0C0384038C828830B5848B0D8824F0BB
:1039280073042404240C23F400732C431B048D8992
:103938001B0C43EA05234D8843EA0523124DA84290
:1039480092B29BB203D005F58065A84215D1CD8906
:1039580023F400639BB243EA05234FF6FF351D406D
:103968008B8845EA03230D8A22F4405242EA051265
:103978004D8A42EA05129BB292B282808A68848399
:10398800C263038430BD00BF00000140038C23F4F0
:1039980080531B041B0C0384038C30B58488828BF2
:1039A8000D8822F4E6421204120C23F4005342EA72
:1039B80005221B048D891B0C43EA05334D8843EA15
:1039C80005330B4DA842A4B292B29BB203D005F5C1
:1039D8008065A84205D10D8A24F4804444EA851400
:1039E800A4B2848082838A680264038430BD00BFE5
:1039F800000001400023038043808380836083812B
:103A0800C381038243827047038B23F008031B049E
:103A18001B0C194301837047038B23F400631B04B9
:103A28001B0C43EA01218BB203837047838B23F07D
:103A380008031B041B0C194381837047838B23F4F1
:103A480000631B041B0C43EA01218BB2838370477C
:103A5800B0F8443029B16FEA43436FEA53439BB24D
:103A680001E0C3F30E03A0F84430704783899BB28A
:103A78000AB1194301E023EA010181817047038AF1
:103A8800828911EA030092B203D011420CBF0020D0
:103A980001207047C94389B20182704701F00303CE
:103AA80001F0FC0101F1804101F59C3110B59B004A
:103AB8008C680F229A4024EA02028A608A68984039
:103AC80002438A6010BD00F0010383F0010003B9CE
:103AD80062B6704710B5EFF3108072B6034B1C7ACC
:103AE800E4B2FFF7F0FF204610BD00BF100D002024
:103AF80038B5EFF3108572B6084B1C7A1872012995
:103B0800E4B204D0022904D1FEF7A8FE01E0FEF7D2
:103B180087FE2846FFF7D7FF204638BD100D002046
:103B28002DE9F04114460E461D460746FFF7D2FF21
:103B380080460020FEF764FEA4B2012037B9314662
:103B48002246FEF727FE3846164906E0164B22465F
:103B58001969FEF71FFE002031462246FEF71AFEBD
:103B6800124810210122FFF7A8FB0120FEF748FEAA
:103B7800A5B1EFF3108072B60B4C257AEDB2FFF7C2
:103B8800A2FFA845234602D16269002AF1D05869EC
:103B9800D0F1010038BF0020BDE8F0812846BDE81B
:103BA800F08100BFA8010020100D002070600240C5
:103BB80010B5FFF78FFF0A2810D10120FFF73EFA52
:103BC80060B101210720FFF793FF054B0020196919
:103BD80005220346BDE81040FFF7A2BF10BD00BF95
:103BE800100D0020800000010002000400080010F1
:103BF800002000401000000010000000100000002D
:103C0800100000001000000010000000100000006C
:103C18001000000008000000080000000800000074
:103C28000800000000100020004000800000000094
:103C3800000000000100000001000000000000007A
:103C48000100000006000000576174742044657686
:103C5800696365730044465520696E204853206D9A
:103C68006F646500576174745374726970204446B8
:103C780055204D6F64650030303030303030303092
:103C88003130420030303030303030303030303148
:103C98000044465520436F6E6669670044465520C8
:103CA800496E746572666163650040496E74657239
:103CB8006E616C20466C6173682020202F3078304C
:103CC800383030303030302F30332A3031364B6195
:103CD8002C30312A3031364B672C30312A3036348B
:103CE8004B672C30372A3132384B67004073737476
:103CF8003235766620666C617368202F30783030F4
:103D08003030303030302F30312A3030324B672C61
:0C3D180030332A3030314B6700000000CF
:103D24001201000200000040830411DF00020102BE
:103D34000301040309040A06000200000040010014
:103D44006D0500087905000885050008A10500082F
:103D5400C5050008E9050008050600084000002024
:103D6400D50B0008210B0008D70A0008470A0008F1
:103D7400A90A00082B0A0008150A0008570A0008B7
:103D8400650A0008730A0008890A00080902240069
:103D9400010102C0320904000000FE010206090408
:103DA400000100FE01020709210BFF0000041A01B3
:103DB40000C00008010E0008D50D0008510F0008CE
:103DC400210E00089F0D0008000000000000000004
:103DD400000000000000000000000000A50D000825
:103DE400B10D0008D4000020F8000020B23C000807
:103DF400F43C0008B23C00086F1D0008791D00085F
:103E0400C91D0008851D00085D1D00085F1D000810
:103E14003200000032000000F43C00088D1E00084F
:103E24007D1E0008971E0008A11E0008B91E000888
:103E3400811E0008140000001E000000D11E0008AE
:103E4400D31E0008D51E0008D71E0008D91E00087E
:103E5400DB1E0008E11E00080010024000100240B2
:103E64000010024000100240001002400010024006
:103E74000010024000100240000C0240000C0240FE
:103E8400000C0240000C024063FF0C000200000022
:103E94000000024000000000FFFFFFFFFFFFFFFFE4
:103EA400FFFFFFFFFFFFFFFFFFFFFFFFFFFFFFFF1E
:103EB40009600000007A030A00000000000000000E
:103EC40001020304060708090300000000000000C3
:040000050800018866
:00000001FF
