:020000040800F2
:1000000000C0002089010008990400089B04000832
:100010009D0400089F040008A104000800000000DF
:10002000000000000000000000000000A304000821
:10003000A504000800000000A7040008A9040008A7
:10004000D5010008D5010008D5010008D501000838
:10005000D5010008D5010008D5010008D501000828
:10006000B9040008D5010008D5010008D501000831
:10007000D5010008D5010008D5010008D501000808
:10008000D5010008D5010008D5010008D5010008F8
:10009000D5010008D5010008D5010008D5010008E8
:1000A000D5010008D5010008D5010008ED040008BD
:1000B000D5010008D5010008D5010008D5010008C8
:1000C000D5010008D5010008D5010008D5010008B8
:1000D000D5010008D5010008D5010008D5010008A8
:1000E000D5010008D501000839050008D501000830
:1000F000D5010008D5010008D5010008D501000888
:10010000D5010008D5010008D5010008D501000877
:10011000D5010008D5010008D5010008D501000867
:10012000D5010008D5010008D5010008D501000857
:10013000D5010008D5010008D5010008D501000847
:10014000D5010008D5010008D5010008690500089F
:10015000D5010008D5010008D5010008D501000827
:10016000D5010008D5010008D5010008D501000817
:10017000D5010008D5010008D5010008D501000807
:08018000D5010008D5010008BB
:10018800002100F004B80C4B5B58435004310B4875
:100198000B4B42189A42FFF4F6AF0A4A00F003B834
:1001A800002342F8043B084B9A42FFF4F9AF03F0EE
:1001B8001DFA00F00DF8704780500008000000207C
:1001C800B4010020B401002030150020FFF7FEBF65
:1001D8002DE9FF4102F02AF902F074F9814B824DB2
:1001E800824C01261E7002F0F1FD4FF4A0432B60F3
:1001F80002F02CFE0A2004F0EFF8B0F5A04F03D06F
:100208002B68B3F5A04F03D1794B7A4A1A601AE0EC
:100218000A2004F0E1F8052802D02B68052B02D14A
:10022800012323700FE00A2004F0D6F845F2555355
:10023800984202D02A689A4204D1002323700123ED
:10024800637000E0A6706C4B1A684AF6AA239A42BB
:1002580008BF01234FF0010008BFE37004F0BCF8A9
:1002680080B2ADF80E00BDF80E204FF6FF7392B2C3
:100278009A4233D07D2004F04FF8002836D000236E
:1002880063702370A370E370BDF80E309BB2013B1E
:10029800092B14D8DFE803F005080F131313131301
:1002A80013130123637001E00123E370BDF80E30DE
:1002B80001339BB205E00123A37002F03BFE4FF629
:1002C800FF73ADF80E30BDF80E10012089B204F0AE
:1002D8006BF802F08FFF04F059F807E00120ADF841
:1002E8000E00BDF80E1089B204F05EF8002002F08E
:1002F80009FC012825D1414B42F210721A60984638
:10030800002002F0FFFB012805461AD1D8F800307A
:1003180033B923706370A370394BE5701D6010E02A
:10032800A778324E002FEBD1344B1A6841F6583378
:100338009A42E5D8334802F0C1F937707770F77000
:10034800B5702278294B012A06D14FF0FF1002F030
:10035800B5F902F02FFF2FE0DA786AB1012A06D149
:100368006FF07F4002F0AAF902F00AFF24E00022B1
:10037800DA7002F049FF1FE09A78EAB95B78012B3E
:1003880005D14FF47F0002F099F902F009FF184BEC
:100398001D4A1B6819680A40B2F1005F0CD11B495D
:1003A8005A681B4D0A602A601B6883F30888092075
:1003B80004F012F82B689847124802F07FF9154AA2
:1003C8000A231370144A012513701371A57003F0E2
:1003D800D7FC124B00931248124A134B294600F0DF
:1003E80033FCFEE7D801002084010020B40100207E
:1003F8002408002000C000088C010020FC0C00200C
:100408008001002000FFFF000000FD2F1C080020D5
:100418002008002024020020290800201C010020B8
:1004280028020020200000209400002038B5144B3A
:100438001A6812B11A68013A1A60124B1A6812B196
:100448001A68013A1A60104C2368254613B12368CC
:10045800013B12E00D4BDA781AB95A780AB91A78C2
:100468002AB1E72002F02CFA32232B6038BD9B78A2
:1004780023B1E72002F024FA6423236038BD00BFCB
:10048800080D0020FC0C0020040D0020B401002001
:100498007047FEE7FEE7FEE7FEE7704770477047E4
:1004A80008B502F0C3FEBDE80840FFF7BFBF000073
:1004B80008B5012003F03CFC78B1012003F052FCA0
:1004C8000020064B0146188002F0E2FA0448102189
:1004D8000122BDE8084004F0A1BB08BDFC010020D2
:1004E8000000014008B51048102104F0BBFBC8B15A
:1004F8000D48102104F0E0FB002002F003FB012866
:1005080005D10A4B1A880A3292B21A8008BD0648E9
:100518001021002204F082FB00200121BDE80840E0
:1005280002F0B6BA08BD00BF00000140FC0100207F
:1005380010B5094CA37A4BB1084B1A6822F0060291
:100548001A6003F053F8204601F043FB4FF4802073
:10055800BDE8104003F006BC2802002010ED00E0C2
:10056800014801F0B3BC00BF2802002012230B8011
:10057800004870470000002004230B8000487047A3
:100588001200002010B5044C04480A46214600F029
:1005980023FA204610BD00BF2F080020B44F0008E2
:1005A80008B50A4608B9044800E00448044900F0C0
:1005B80013FA034808BD00BFC74F0008D64F00080C
:1005C8002F08002008B50A4608B9044800E0044886
:1005D800044900F001FA034808BD00BFE54F0008D0
:1005E800F24F00082F08002010B5044C04480A46B2
:1005F800214600F0F1F9204610BD00BF2F08002069
:10060800FF4F000810B5044C04480A46214600F084
:10061800E3F9204610BD00BF2F0800200A5000084B
:1006280090F8CC350B7090F8CD354B7090F8CF25FD
:1006380090F8CE3503EB02234B8090F8D12590F843
:10064800D03503EB02238B8090F8D32590F8D23570
:1006580003EB02239BB2CB80C0F84031012380F822
:100668001131704710B58021044600F0BCFE2046C9
:10067800002100F0B8FE2046BDE8104001F08ABA1B
:1006880073B54B7804460D46092B00F21C81DFE850
:1006980013F0CD0008011A01E0001A0174000A00E5
:1006A8001A01BF00930069880B0A013B062B00F270
:1006B8000A81DFE813F007001A0027000801080183
:1006C80008010801D0F8EC3580781B680DF10601A7
:1006D8009847EB88402B014603D094F81231012B40
:1006E8003BD10823ADF8063037E0D0F8E435807800
:1006F8009B6A0DF106019847022343700146C4F82E
:10070800F0052AE0C9B2807805291FD8DFE801F092
:1007180003070B0F1317D4F8EC355B6812E0D4F815
:10072800EC359B680EE0D4F8EC35DB680AE0D4F8C9
:10073800EC351B6906E0D4F8EC355B6902E0D4F8C7
:10074800EC359B690DF10601984705E0D4F8E435CE
:100758000DF10602DB6A98470146BDF80630002B0A
:1007680000F0B580EA88002A00F0B1809A4228BFDC
:100778001A46ADF80620204668E0AB88002B40F00A
:10078800A280EB88002B40F09E8090F81231AE7862
:10079800032B06F07F0600F0968080F8146131463E
:1007A80000F055FE204600F05DFD0EB1022300E08A
:1007B800012384F812318AE0A978464E0129317064
:1007C80000F2818090F81231022B02D0032B09D05D
:1007D80079E0002961D00121032380F8101180F805
:1007E800123111E039B9022380F8123180F8101162
:1007F80000F052FA51E090F8101101294DD000F0A4
:100808004BFA317884F81011204600F039FA44E0A8
:10081800EA88012A57D190F81231022B04D0032B11
:1008280051D100F5887111E02B490FE090F8123191
:10083800023B012B47D8274B01229A60D0F8182198
:100848000AB103229A6025492046022200F0D6FC0C
:100858003DE06B88012B2DD0022B38D1AA8812F0ED
:10086800FF0F34D10369120A013A5B68042A0FD8D2
:10087800DFE802F0030507090B00012206E0022267
:1008880004E0032202E0042200E0052262F30613DA
:10089800134A1360012384F81631204600F0E2FC65
:1008A80015E090F81231023B012B0CD86B88012B14
:1008B8000DD10023C4F81831D4F8E43520469B68DC
:1008C80029469847E9E720462946FFF7CBFE00204E
:1008D80002B070BDB8010020BC010020C00100209A
:1008E800F808002038B590F81231032B04460D465D
:1008F8000CD10B79022B09D8D0F8E4359B689847BE
:10090800EB882BB9204600F0ADFC01E0FFF7AAFE0A
:10091800002038BD70B54E788A88012E04460D46F1
:10092800D3B210D027D3032E50D190F81221022A27
:1009380028D0032A48D14A889AB95E0611D01946A8
:1009480000F051FD0DE090F81221022A1AD0032A76
:100958003AD14A88002A39D1590608D0194600F0F8
:100968005CFDD4F8E43520469B6829469847204624
:1009780000F078FC2AE090F81251022D02D0032DE5
:1009880006D021E05A0621D0194600F02CFD1DE0C2
:1009980012F0800F4FF028010D4A10D003F07F03AA
:1009A80001FB030191F81E310BB1012300E0002384
:1009B800D36020460749022200F020FC06E001FB34
:1009C800030393F87633EFE7FFF74CFE002070BD82
:1009D800B8010020C401002030B5D0B10023DCB23A
:1009E8000133C51815F8015C002DF8D1631C5B00B4
:1009F80013800B7003234B700138022310F8012F6A
:100A08003AB15C1CE4B2CA5402330022DBB20A5584
:100A1800F4E730BD10B5D0F8E83504461B699847AF
:100A2800032384F81231002010BD08B590F8123164
:100A380080F81331042380F81231D0F8E835DB68E8
:100A48009847002008BD08B5D0F8E435DB6903B144
:100A58009847002008BD08B5D0F8E4351B6A9847C8
:100A6800002008BD08B5D0F8E4355B6A9847002037
:100A780008BD10B5D0F8E83504465B6998470123EE
:100A880084F81531002010BDD0F8E83510B50446BB
:100A98009B699847D4F8E43520465B68002198475D
:100AA800002084F8150110BD002110B50B4604463E
:100AB800402200F043FC802140222046002300F021
:100AC8003DFC012384F81231D4F8E835A0785B683E
:100AD8009847002010BD13B569460446FFF7A0FDEE
:100AE8009DF8001001F01F03012B0CD006D3022B38
:100AF8000ED120466946FFF70DFF0EE020466946F5
:100B0800FFF7BEFD09E020466946FFF7EBFE04E06B
:100B1800204601F0800100F066FC002002B010BD04
:100B280070B50446002947D190F81131022B37D10E
:100B3800D0F83821D0F824319A4211D9C178D21A84
:100B48000129C0F8382104D1D0F828110B44C0F885
:100B580028312046D4F8281192B200F060FB1FE03B
:100B6800D0F83C51B5FBF3F603FB16565EB99D422F
:100B780009D3D0F840319D4205D2324600F04FFBF0
:100B8800C4F840610CE0D4F8E435DB682BB194F884
:100B98001221032A01D120469847204600F071FB14
:100BA80094F81631012B10D1094A236912685A604A
:100BB800002384F8163108E0D0F8E4355B6923B1E6
:100BC80090F81221032A00D19847002070BD00BF79
:100BD800F808002010B5044659BB90F81131032BD2
:100BE80030D1D0F89023D0F87C339A4214D9C17808
:100BF800D21A0129C0F8902304D1D0F880131944DF
:100C0800C0F880139A4228BF1A462046D4F88013A9
:100C180092B200F01EFB15E0D0F8E4351B6923B151
:100C280090F81221032A00D19847204600F01AFBB9
:100C380008E0D0F8E4359B6923B190F81221032A23
:100C480000D19847002010BD2DE9F0410446164612
:100C580098460D46069F00F027F820462946C4F816
:100C6800E485C4F8E875C4F8EC6500F019FBD4F81D
:100C7800E8351B6898472046BDE8F04100F06AB89F
:100C8800D0F8E43510B504461B689847D4F8E83521
:100C98009B689847002010BD08B5D0F8E4355B681C
:100CA8009847002008BD0000F7B50120284C0146F0
:100CB80003F0BAFA4FF4C8530026032700932046DE
:100CC800022369468DF804308DF805708DF80660AA
:100CD8008DF8076003F070F9204608210A2203F016
:100CE8002FFA20460B210A2203F02AFA0A2220466C
:100CF8000C2103F025FA01254FF4007320466946BC
:100D080000938DF805708DF804608DF806508DF805
:100D1800076003F051F94FF4806320466946009359
:100D28008DF806508DF807508DF8057003F044F9DA
:100D38000A210A46204603F003FA29464FF4804068
:100D480003F0CCFA8020294603F08CFA03B0F0BDFA
:100D58000000024007B54FF4C06002F07FFD432356
:100D68008DF804300322012301A88DF805308DF891
:100D780006208DF8073002F083FD03B05DF804FB10
:100D8800782358430722B0FBF2F000230133834253
:100D9800FCD970474FF47A735843FFF7F1BF00202E
:100DA8007047000024230B80004870476C00002027
:100DB800072908B508D8054B063953F82100044916
:100DC800FFF70AFE024808BD002008BDCC0000203D
:100DD8002F080020074B10B502221A70064B00247A
:100DE8001C701A71054B1C605C6000F027FF2046E0
:100DF80010BD00BF2402002029080020C8010020DF
:100E080008B500F00BFF044B02221A70034B0020B8
:100E180018701A7108BD00BF24020020290800209C
:100E280037B53E4A1378042B0146154653D13C4C3E
:100E38002368002B39D13B4B1A781AB96368012B08
:100E480026D13DE0212A0FD16268052A20D1DA781F
:100E58009978120402EB012259781B790A4402EBB3
:100E68000362314B5A622BE0412A11D16268052A8C
:100E78000ED1D8789A78000400EB02205A781B79B2
:100E8800104400EB0360284B586200F0E7FE17E0BF
:100E98000023636023608DF800300846012369460B
:100EA800ADF80630FFF7DEFB0AE0012B08D91F4A30
:100EB80061681A441C4B586A00EB822000F0E6FE79
:100EC8001B4A00230321636023602970117153704A
:100ED8009370D3701FE0072B1DD1114B002199602F
:100EE800114B5D7F124B05F0040505F0FF0435B189
:100EF80006201070187159709970D9700BE008218C
:100F0800117019715C709C70DC7000F0B0FA00F020
:100F180095FE02F079F9002003B030BD24020020CC
:100F2800C8010020FC0800206C000020FEFF3F00E4
:100F38002908002070B50C7814F06004054600F00C
:100F48002881202C40F046814C78062C00F21D8127
:100F5800DFE814F0F100070031008300BE00D30081
:100F6800D800CA889D4B8AB11878022801D0052874
:100F780011D149889A4880E8060003211970994BD5
:100F880028461971984900F053F923E11A78052A7F
:100F980005D0022A03D02846FFF764FB1AE1904ADD
:100FA8000121916006221A708E4B00245C709C709F
:100FB800DC701A710FE1CA888848002A44D0047886
:100FC800874B022C01D0092C37D14E881E605A60FD
:100FD800844B9EB9042A34BF0922022282491A711D
:100FE8005E709E70DE70212302704B70284641238C
:100FF80003220E708B7000F001F9C4E0012E14D0AA
:10100800092101701971002478495C709C70DC70AA
:10101800774B486A3344114600EB832000F050FEBA
:101028006F4B01469A882846CAE000240F220270B6
:101038001A715C709C70DC7002E000245C601C60BB
:101048002846FFF70FFBC6E0664B022101705A7075
:101058009A70DA7019711446BDE060490B78032B59
:1010680002D0062B19D02FE05D485E4A43688BB149
:1010780004230B70016813715C4B29B95A48007836
:10108800412801D1586A02E0586A564A012100F005
:101098002DFE19E00520087012E0514B9B68012BCA
:1010A80006D1504A0720537008701071002309E0D8
:1010B80053B94E4A527F520706D50220494A087052
:1010C800107153709370D37028464649062216E073
:1010D800424A13780A2B434B04D102210024117091
:1010E8001C7004E00A2111700E221A7000245C7032
:1010F8009C70DC7019715C716DE03849012200F058
:101108007DF867E0354A1378991E0129114604D9FC
:101118005A1F012A01D9092B5CD1324B0024022223
:101128001C705C709C70DC701A715C712C4B0A70BE
:101138001C605C604FE0294A1378981E012804D986
:10114800581F012801D9092B0CD102201070254AFB
:101158000023137053709370D37010715371204A29
:1011680013605360214B9B7F03F0100303F0FF06CD
:1011780033B1284600F07BF9284600F070F92AE0E0
:101188004888FFF707FE344625E0FFF76BFA02248C
:1011980021E04B780A2B11D00B2B14D0062B1AD137
:1011A8004B881B0A212B05D1CA881249092A28BF56
:1011B800092201E021462246284601E00E49012283
:1011C80000F01CF807E08B78012B3FF6E4AE044AE8
:1011D800D36000E00024204670BD00BF2402002038
:1011E800C801002029080020FC0800206C0000200D
:1011F800FEFF3F0087000020D401002038B50446D8
:101208000D46C4F83C21C4F838211346022280F860
:10121800112100212A4600F0CDF8002038BD10B574
:101228000C4613460021224600F0C4F8002010BDE9
:1012380038B504460D46C4F89423C4F890231346E1
:10124800032280F8112100212A4600F098F8002096
:1012580038BD10B50C4613460021224600F08FF821
:10126800002010BD10B50021042304460A4680F86A
:1012780011310B4600F09EF8204600F08BFC002050
:1012880010BD10B50021052304460A4680F8113127
:101298000B4600F074F8204600F07CFC002010BDDE
:1012A80010B5044600F036F90123002284F8123103
:1012B80084F81421234661788A4203F1280312D264
:1012C800012183F8F5104020002183F8F420A3F8C9
:1012D800FA2083F8F710C3F8FC00C3F80011C3F82C
:1012E80008110132E7E72346002261788A4203F1B8
:1012F800280311D20021402083F84C23A3F852235D
:1013080083F84D1383F84F13C3F85403C3F85813E5
:10131800C3F860130132E8E7204600F0B1F920462F
:1013280000F060F92046002100F0EEF9204600F0B8
:1013380035FA2046BDE8104000F09BB970B5CDB233
:1013480015F0800F01F07F044FF0280615BF06FB4B
:10135800040106FB010101F58E7101F55D71E4B22E
:10136800ED090C704D708A60CB7005B1CC80022BF2
:1013780004BF00230B7100F0A6FA002070BD38B539
:1013880001F07F04282505FB040505F55D714B6117
:101398000023CA608B614B7085F87443C378012BB6
:1013A80008BF0A6114B900F03CFB01E000F0B7FA8D
:1013B800002038BD70B501F07F04282505FB040521
:1013C80005F58E7101264E7085F81C41CA600A61C8
:1013D80000228A614B6114B900F023FB01E000F0A0
:1013E8009EFA002070BDCBB213F0800F01F07F028F
:1013F80010B54FF0280415BF04FB020104FB0101DE
:1014080001F58E7101F55D71DB0901248C700A709C
:101418004B7000F082FB002010BDCBB213F0800FA0
:1014280001F07F0210B54FF0280415BF04FB02013C
:1014380004FB010101F58E7101F55D710024DB09E2
:101448008C700A704B7000F07CFB204610BD02695E
:10145800002361F30A1311680B4313607047036993
:101468005A686FF341025A600320FFF793BC03697F
:101478005A6842F002025A600320FFF78BBC000052
:1014880037B50023104C019305460320FFF778FC7D
:101498002B68013C1A69019213D0019A002AF4DAE8
:1014A800019A42F001020192019A1A61064A1969E9
:1014B8000191013A02D00199C907F8D40320FFF736
:1014C8005FFC002003B030BD410D030030B5C47887
:1014D8006CB900EB82000333D0F8D0509B10224641
:1014E8009A4204D051F8220028600132F8E700201F
:1014F80030BD10B50332D0F8D0409210002393428B
:101508004FEA830004D0206841F823000133F6E74E
:10151800084410BD0122F0B50023827001294FF064
:101528004002C37082800CD10823037004234370E7
:101538004FF4A073C38002230372C1724FF0A0431B
:1015480009E041B90C230370062343704FF4A063EC
:10155800C380234BC17203F5006245780261C36002
:10156800024619460024AC4201F1200602F10402A9
:1015780008D201F5106701F5306111655761013432
:101588003146F0E7047803F58062426103EB4415C5
:1015980003F58862C0F8CC2005F5A06503F5A062C4
:1015A8000146AA4201F1040103D0C1F88C2020327F
:1015B800F7E703EB043403F5805204F58054014641
:1015C800A24201F1040104D0C1F8CC2002F58052F6
:1015D800F6E703F56063C0F80C310020F0BD00BFEA
:1015E8000000044038B5037A012B05464FF000048B
:1015F80050F80C2F1ED1936B697A64F3104309B12C
:1016080043F480139363D3686FF386136FF3965391
:101618006FF351436FF3D343D360FFF731FFEB7898
:10162800012B19D1052363F34404EB6844F020042B
:101638009C6011E0D36843F04003D360FFF720FFBC
:101648006B7AEA68002B0CBF4FF450234FF4E81371
:1016580093631420FFF79EFBEB78012B07D1EB680F
:101668009C68052262F3440444F020049C60002036
:1016780038BDC3689A6842F001029A60002070473A
:10168800C3689A6822F001029A600020704700003F
:1016980007B500230193019B43F020030193019BAD
:1016A80061F38A130193C268019B1361074B1169A7
:1016B8000191013B02D001998906F8D40320FFF774
:1016C8005FFB002003B05DF804FB00BF410D030081
:1016D80007B500230193019B43F010030193C268EF
:1016E800019B1361074B11690191013B02D00199DC
:1016F800C906F8D40320FFF743FB002003B05DF8C8
:1017080004FB00BF410D0300C26808B5D368012976
:101718006FF35D736FF39E7302D143F0005302E0E1
:1017280009B943F08043D3603220FFF733FB002030
:1017380008BDC368586900F0010080F001007047D7
:10174800C3685A6998691040704703691A6861F359
:1017580001021A607047000010B5C26800236FF0DC
:10176800804193615161C2684FF0FF345460516108
:1017780009499161C178994208BF102343F0804319
:1017880043F47013916943F4605343F00C030B4323
:101798009361002010BD00BF00080080D0F80C3114
:1017A80070B500251D6003691A6865F3CC221A60BC
:1017B800C37A012B04462E4616D10321FFF7C5FF35
:1017C800E368A02262F31F455A6262F30F054FF4E3
:1017D800A07262F30F066FF31F469D62C3F804619F
:1017E800C3F80861C3F80C6110212046FFF750FFC9
:1017F8002046FFF76DFF226900234FF0FF31136188
:10180800536191612169D361627893420FD204EBED
:1018180083020133926910680028ACBF00204FF0A2
:101828009040106000201061FF209060ECE70023DA
:10183800627893420FD204EB83020133526D106831
:101848000028ACBF00204FF09040106000201061CD
:10185800FF209060ECE70B6943F480730B61E37839
:10186800012B04D1044B402262F359430B632046F9
:10187800FFF772FF002070BD0301010003699B6838
:10188800C3F34103022B05D0032B05D0012B03D052
:10189800032070470120704702207047036981695F
:1018A80010B59C680A68C4F34100022806BF0320EB
:1018B80060F30A026FF30A020A605A6842F48072FF
:1018C8005A60002010BD30B54D780B78012D4FF0CF
:1018D800000200EB830405D105FA03F3A46963F35E
:1018E8000F0205E0012505FA03F3646D63F31F4257
:1018F80023681D040DD48D6865F30A03CD78C98863
:1019080065F3934361F3995343F0805343F40043E1
:1019180023600369D9690A43DA61002030BDF8B54C
:101928004E780A4609785369012E00EB810145D1AA
:101938008D6929682C6963F3120413B966F3DC44D2
:101948000BE096689F19013FB7FBF6F666F3DC4497
:10195800D678012E08BF66F35E742C61C4781578BA
:10196800012C05D100EB85051469AD696C610AE0AD
:10197800D478012C07D033B104690127666B07FAC4
:1019880005F535436563D478012C07D10469A4684B
:10199800E40554BF41F0005141F08051147800EB48
:1019A800840441F00441A4692160D178012936D129
:1019B800D16812789BB2FFF789FD30E04E6D9568CB
:1019C800316834692BB965F31204012363F3DC44ED
:1019D8000AE02B44013BB3FBF5F363F3DC44C3F3A8
:1019E80009035D4365F312043461C378012B05D103
:1019F800137800EB83035C6D13696361D378012B63
:101A080006D1537913B141F0005101E041F0805102
:101A1800137800EB830041F00441436D1960002006
:101A2800F8BDF7B591F801C04A69BCF1010F3DD185
:101A38008469236826690096F5B2C6F3074742B958
:101A480062F306056CF3C4078DF800508DF8027038
:101A58000FE08E68B2428ABF66F3060562F3060598
:101A68004E6101223E4662F3C4068DF800508DF89F
:101A78000260009A2261C278012A05D10A7800EB37
:101A8800820295690A696A6143F004432360C37856
:101A9800002B3FD14B69002B3CD003690A78586B67
:101AA800012101FA02F202435A6333E00B7800EB9A
:101AB80083035C6D236825690095EFB2C5F307467B
:101AC8008D684AB9012265F3060762F3C4068DF8EA
:101AD80000708DF802600BE03A4665F306024D612E
:101AE8008DF800203546012262F3C4058DF80250B6
:101AF800009A2261C278012A05D10A7800EB820295
:101B0800546D0A6962610A7800EB820043F004436D
:101B1800426D1360002003B0F0BD4B78012B0B78A9
:101B280000EB830006D182691368002B04DA43F0C6
:101B3800804301E0426D136843F4001313600020F2
:101B480070474B78012B0B78C97800EB8300A1F123
:101B580002010CBF8269426D136801296FF3555366
:101B680098BF43F0805313600020704703699A6957
:101B7800D8691040000C704700EB810102694B6D79
:101B88009B6850691840704703699869DB69184079
:101B980080B2704782B000230093C0238DF80330D1
:101BA80001224FF0000362F3C4038DF802301823BA
:101BB8008DF80030436D009A1A61C278012A06D167
:101BC80000F2CC5058611A684FF080221A6002B0B7
:101BD8007047837A63B103699B68DB0708D5D0F83F
:101BE8000C31D0F80C216FF341036FF3000313603D
:101BF8007047000038B5084C23689B69054698472C
:101C080028B1636828469B69984710B90120C0B27B
:101C180038BD022038BD00BFC4000020064A136842
:101C28005B6810B5144603B1984763685B6803B1F5
:101C38009847002010BD00BFC4000020064A136862
:101C48009B6810B5144603B1984763689B6803B155
:101C58009847002010BD00BFC400002010B50446FE
:101C6800FFF7C8FF04F17843B3F5404F09D30128C3
:101C780007D8054B53F82030DB6813B12046984746
:101C880010BD012010BD00BFC400002038B50446B7
:101C98000D46FFF7AFFF04F17843B3F5404F0AD381
:101CA800012808D8054B53F820301B691BB1204682
:101CB8002946984738BD012038BD00BFC400002020
:101CC80038B504460D46FFF795FF012808D8054AA0
:101CD80052F820305B691BB120462946984738BD29
:101CE800014838BDC4000020FC08002038B50D4666
:101CF8001446FFF77FFF01281DD8104B15F001058A
:101D080053F820200BD0D269627053F82020527FFC
:101D1800A27053F820309B7FE370002038BD126A10
:101D2800627053F8202092F82120A27053F82030D6
:101D380093F82230F0E7012038BD00BFC40000202E
:101D4800704700F17840B0F5801F34BF00200120B3
:101D5800704708B502F014F8002008BD08B502F075
:101D680025F8002008BD00008B0770B506460D4613
:101D780001D00B4601E000240AE04FF6FC722A402D
:101D880004329342F7D2084AFF2199540133F4E709
:101D9800AC4204EB060005D2034BE15802F074F89C
:101DA8000434F5E7002070BDFC08002008B5214B7D
:101DB800984201D8002030E01F4B984201D80820F3
:101DC8002BE01E4B984201D8102026E01C4B98426D
:101DD80001D8182021E01B4B984201D820201CE094
:101DE800194B984201D8282017E0184B984201D87F
:101DF800302012E0164B984201D838200DE0154BE0
:101E0800984201D8402008E0134B984201D8482056
:101E180003E0124B984205D85020022101F0D4FF6C
:101E2800002008BDB0F1016F01D25820F5E701206C
:101E380008BD00BFFF3F0008FF7F0008FFBF000884
:101E4800FFFF0008FFFF0108FFFF0308FFFF050869
:101E5800FFFF0708FFFF0908FFFF0B08FFFF0D083A
:101E680000207047B0F5001F34BF002001207047E4
:101E780008B501F0E9F9002008BD08B501F018FA25
:101E8800002008BD08B503468AB20348194601F088
:101E9800C1FA002008BD00BFFC08002010B5044CA2
:101EA80003468AB22046194601F0F4FA204610BDCE
:101EB800FC08002070477047704770477047002043
:101EC80000F076BC002000F0C7BC00002DE9F04F00
:101ED80085B00446FFF72DFC08B900201EE2204615
:101EE800FFF72EFC06460028F7D0C0F3C0400028B4
:101EF8004FD02046FFF73AFE27468046A1464FF0CE
:101F0800000AB8F1000F43D018F0010F38D05FFA7B
:101F18008AFB59462046FFF72FFEC107054620D504
:101F28007B6D01259D60E278AA4207D11A69D9F82C
:101F38007C33C2F312029B1AC9F88C33A64B1B6878
:101F480020461B6859469847E378012B09D1BAF116
:101F5800000F06D194F81131052B02D12046FFF766
:101F680019FEAA0702D57B6D02259D602B0707D5B0
:101F7800994B1B6820469B6898477B6D08259D6098
:101F88000AF1010A4FEA5808043709F12809B8E7A5
:101F98000120750340F1A3802046FFF7F5FDA04618
:101FA800824627464FF00009BAF1000F00F09680EC
:101FB8001AF0010F00F08A8023695FFA89FB19691A
:101FC8005D6B04EB8B0225FA0BF59269ED019268C3
:101FD800EDB20D431540E8071CD55A6B012505FAEB
:101FE80009F122EA01025A63D8F818309D607A4B49
:101FF8001B6820465B6859469847E378AB4209D18D
:10200800B9F1000F06D194F81131042B02D1204602
:10201800FFF7C0FD290703D5D8F8183008259D60BB
:10202800EA0603D5D8F8183010259D606B0603D54D
:10203800D8F8183040259D60A80703D5D8F818307F
:1020480002259D60290641D5D7F83431D7F83021CB
:10205800D21AD7F824319A4238BF134603F1030C39
:10206800D8F818309B694FEA9C0C9BB2634529D974
:10207800D7F83451D7F830319D4223D213B3D7F86B
:102088002421D7F828115D1B954228BF154605F174
:10209800030C4FEA9C0CABB220465A46CDF804C05C
:1020A800FFF714FAD7F828312B44C7F82831D7F8A6
:1020B80034311D44C7F83451D8F81830DDF804C05D
:1020C8009B69D2E7D8F8183080259D6009F101098D
:1020D8004FEA5A0A08F10408283765E70120B207D1
:1020E80002D5E36802225A61002E19DAA37A43B1B5
:1020F800D4F80C31D4F80C216FF341036FF30003CB
:10210800136023695A6822F001025A60324B1B6837
:1021180020469B699847E3684FF000425A610120C6
:1021280033052DD500238DF80F3094F812318DF832
:102138000F30294B1B6820465B69984723699A68CA
:10214800E3684FF400615961A37AC3B1D70716D584
:1021580094F81531012B12D19DF80F30032B0ED1B5
:10216800D4F80C311A6842F001021A601A6842F079
:1021780003021A60194B1A6942F006021A6101201B
:10218800350708D5144B1B682046DB689847E36879
:1021980008225A610120F10636D5E3689A6922F0CF
:1021A80010029A611F6A282507F00F0305FB0345F3
:1021B800C7F34343022B05F55D7511D0062B1DD1DE
:1021C800204604F2CC510822FFF793F9AB69C7F314
:1021D8000A173B44AB6111E03C00002000ED00E031
:1021E800C7F30A1757B13A462046E968FFF781F95D
:1021F800EB683B44EB60AB691F44AF61E3689A69E5
:1022080042F010029A610120F20435D523695A6818
:10221800002522F001025A6020462946FFF738FAC5
:1022280023462A4661788A4203F1040306D2586994
:10223800FF218160186D01328160F3E7236901276E
:102248004FF0FF3267F30F059A6167F31F450B22C2
:10225800DD615A611A611A686FF30A121A60204622
:10226800FFF798FCE3684FF480525A612D4B1B68C6
:1022780020461B6998473846B3041DD52046FFF70A
:102288000DFBE3682046DD68FFF7F8FA032806D15E
:102298000023A3704FF40073A380092304E00123F3
:1022A800A3704023A380052363F38D25E3684FF4CF
:1022B8000052DD6001205A61F70209D5194B1B68ED
:1022C8002046DB699847E3684FF480125A61012081
:1022D800B50209D5134B1B6820461B6A9847E3686B
:1022E8004FF400125A610120710009D50D4B1B688B
:1022F80020465B6A9847E3684FF080425A610120A4
:1023080072070BD5E3685D686B0704D5054B1B683E
:1023180020469B6A9847E36801205D6005B0BDE8E8
:10232800F08F00BF3C00002080B483B000AF0346AC
:102338003960FB7197F90730002B0BDA0D49FB79EF
:1023480003F00F03043B3A68D2B21201D2B20B4435
:102358001A7609E0084997F907303A68D2B21201AB
:10236800D2B20B4483F800230C37BD465DF8047BDA
:10237800704700BF00ED00E000E100E080B400AF6E
:10238800BFF34F8F054A054BDB6803F4E061044B4C
:102398000B43D360BFF34F8FFEE700BF00ED00E0B3
:1023A8000400FA0580B582B000AF78607B68013B15
:1023B800B3F1807F01D301230FE00A4B7A68013A19
:1023C8005A604FF0FF300F21FFF7AEFF054B002298
:1023D8009A60044B07221A60002318460837BD4646
:1023E80080BD00BF10E000E080B400AF0C4B0C4A89
:1023F800526842F4C0525A600A4B0A4AD26842F004
:102408008072DA60084B00225A60074B064A12684D
:1024180042F001021A60BD465DF8047B704700BFB8
:10242800002004E0F0ED00E0001000E080B582B08C
:1024380000AF4FF08050012101F032FF012001F080
:10244800C5FE092001F0C8FF02464AF2A5539A4288
:1024580007D109204FF0FF3101F0A6FF01F0C6FEB9
:10246800FEE7FFF7C1FF00F025F800237B6007E0D7
:102478007B68DBB2184600F03FF87B6801337B606D
:102488007B68072BF4DD00F099F800233B6007E038
:102498003B68DBB2184600F057F93B6801333B60F4
:1024A8003B68032BF4DD0020002100F08BFA08378D
:1024B800BD4680BD80B500AF4FF4407001F0CEF945
:1024C80080BD00BF80B500AF094B1A68094BA3FB5C
:1024D80002139B091846FFF765FF0346002B00D03F
:1024E800FEE74FF0FF300D21FFF71EFF80BD00BF54
:1024F80098010020D34D621080B584B000AF034628
:10250800FB71FA79114B53F822301846012101F07A
:102518008BFEFA790E4B33F81230BB6001233B7304
:102528000023BB7302237B73FA790A4B53F82220EA
:1025380007F108031046194601F03EFDFB791846DD
:10254800002100F009F81037BD4680BD604F000833
:10255800504F00083801002080B483B000AF024615
:102568000B46FA71BB71FB79082B01D9FF2319E0DF
:10257800BB79012B09D1FA790E4B53F82230F9793E
:102588000D4A32F811201A830BE0BB79002B08D1D1
:10259800FA79084B53F82230F979074A32F81120B2
:1025A8005A8300235BB218460C37BD465DF8047B9E
:1025B800704700BF38010020504F000880B58AB02E
:1025C80000AF0120012101F089FE5423FB8442F26F
:1025D8000F73BB8407F11803184602F01BF807F1C4
:1025E8001803184602F016F8BB8CFB61FB8C3B8382
:1025F80000233B8400237B8307F118032D481946E9
:1026080001F09EFF3B1D184602F04CFA6023BB8088
:102618000123FB800023FB6002233B820023BB8253
:102628003B1D2448194602F04FF82248002102F0C9
:102638005BFA3B1D1F48194602F0C0F81D480021EF
:1026480002F06EFA3B1D1B48194602F03FF9194883
:10265800002102F083FA0023BB800123FB800023C2
:10266800FB6000233B823B1D1248194602F0B4F977
:102678001048002102F08EFA0F480921012201F0CA
:102688005FFD0D480B21012201F05AFD0A480D217A
:10269800012201F055FD0748012101F0D5FF054849
:1026A800012101F0F1FF0348012102F091FA2837D6
:1026B800BD4680BD000001400010024080B483B0D8
:1026C80000AF78601C4B7A681A607B6803F47F035C
:1026D8001B0C1A4A127802FB03F3194AD26A013218
:1026E80002FB03F31B0C9AB2164B9A807B6803F427
:1026F8007F431B0A114A127802FB03F3104AD26A7D
:10270800013202FB03F31B0C9AB20E4BDA807B6892
:10271800DBB20A4A127802FB03F3094AD26A013291
:1027280002FB03F31B0C9AB2064B5A800C37BD46CA
:102738005DF8047B704700BFF401002068010020A9
:1027480000000140DC01002080B584B000AF0346E2
:10275800FB71FA79134B53F822301846012101F026
:1027680063FDFA79104B33F81230BB60FB79002B0C
:1027780004D101233B730023BB7303E002233B73A3
:102788000023BB7302237B73FA79084B53F822208A
:1027980007F108031046194601F00EFC1037BD4634
:1027A80080BD00BF884F0008804F000858010020F6
:1027B80080B483B000AF0346FB71FB79002B02D0D5
:1027C800E72B0AD033E0FA791B4B53F82230F9791A
:1027D8001A4A32F811201A8329E0194B1B78002B6A
:1027E8000FD1184B184A928892B29A63154B164A21
:1027F800D28892B2DA63134B134A528892B25A6360
:102808000EE0104B114A928892B29A630D4B0F4A10
:10281800D28892B2DA630B4B0C4A528892B25A634E
:102828000B4B63221A700B4BFF221A7000BF0C3738
:10283800BD465DF8047B704758010020804F0008B2
:10284800EC01002000000140DC010020E401002030
:10285800690100206A01002080B483B000AF0346FC
:10286800FB71FB79002B02D0E72B0AD019E0FA792B
:102878000E4B53F82230F9790D4A32F811205A8359
:102888000FE00C4B00229A630A4B0022DA63094BD3
:1028980000225A63084B00221A70084B01221A7052
:1028A80000BF0C37BD465DF8047B70475801002017
:1028B800804F000800000140690100206A010020E3
:1028C80080B483B000AF0346FB71FB79002B02D0C4
:1028D800E72B10D064E0FA79344B53F82230F979B9
:1028E800324A52F821205169F879314A32F81020D9
:1028F8004A405A6154E02F4B1B78002B27D12E4BAE
:102908009B6B002B03D02C4B00229A6304E02A4BCC
:102918002A4A928892B29A63274BDB6B002B03D02A
:10292800254B0022DA6304E0234B244AD28892B272
:10293800DA63214B5B6B002B03D01F4B00225A63D9
:102948002DE01D4B1D4A528892B25A6327E01A4B5C
:102958009B6B002B03D0184B00229A6304E0164BA4
:10296800174A928892B29A63134BDB6B002B03D001
:10297800114B0022DA6304E00F4B114AD28892B25D
:10298800DA630D4B5B6B002B03D00B4B00225A63B1
:1029980005E0094B0A4A528892B25A63FFE700BF22
:1029A8000C37BD465DF8047B704700BF5801002016
:1029B800804F0008EC01002000000140DC010020ED
:1029C800E401002080B586B000AF02460B46FA71DC
:1029D800BB71FA79274B53F822301846012101F0D0
:1029E80023FCFA79244B33F812303B61FB79234AF4
:1029F800D35C3B7502237B750023BB75FB79204AAA
:102A0800D35CFB75FA791F4B53F8222007F11003AA
:102A18001046194601F0D0FABB79012B27D11A4884
:102A28001021002202F0FAF81B233B7305237B7365
:102A38000023BB730123FB7307F10C03184600F056
:102A48001FFFFA79114B33F81230DBB23B730623C0
:102A58007B730023BB730123FB7307F10C03184638
:102A680000F00EFFFB791846012100F011F8183725
:102A7800BD4680BD9C4F0008984F0008F801002013
:102A8800740100206C01002000000140B04F0008D4
:102A980080B584B000AF02460B46FA71BB71FA7973
:102AA800144B33F81230DAB2F979134B33F811308A
:102AB800DBB21046194602F00FF9FA790F4B33F8DA
:102AC8001230184601F026F9FA790C4B33F8123017
:102AD800BB6000233B73FB79094AD35C7B73BB79EA
:102AE800BB7307F10803184601F0A6F81037BD4676
:102AF80080BD00BFA84F0008AC4F0008A44F0008D5
:102B08007801002080B582B000AF0346FB71FA79E6
:102B1800074B53F82220F979064B33F81130104649
:102B2800194601F0D7FA034618460837BD4680BD56
:102B38006C010020984F000880B592B000AF396052
:102B480013460246FA71BB804FF40010012101F0D0
:102B58006BFB214B3B610023BB630023FB6300231A
:102B68003B6400237B643B687B6100233B624FF43A
:102B780080637B620023BB620023FB6200233B630C
:102B88004FF440337B63FB79012B0FD10023FB60AB
:102B98000023BB61BB88FB61104800F0CFFE07F142
:102BA8000C030E48194600F09BFF11E0FB79002B3F
:102BB8000ED10023FB604023BB61BB88FB61084842
:102BC80000F0BCFE07F10C030548194600F088FF29
:102BD8004837BD4680BD00BF0C38004058600240F1
:102BE8007060024080B582B000AF0346FB71FB798C
:102BF8000548194600F0CAFFFB790448194600F059
:102C0800C5FF0837BD4680BD58600240706002406D
:102C180080B500AF012000F0DBFD0B4B0A4A12889B
:102C280092B222F0400292B21A80074B074A1288E9
:102C380092B242F0400292B21A8005484FF4805195
:102C480001F070FA80BD00BF00380040160D00206A
:102C58000004024080B500AF04484FF4805101F0F1
:102C680053FA012000F0ECFD80BD00BF00040240D3
:102C780080B588B000AF0220012101F0D5FA4FF4E9
:102C88008040012101F00CFB4FF40053BB6102238B
:102C98007B7702233B770023BB770023FB7707F181
:102CA80018032E48194601F087F94FF40043BB6119
:102CB80007F118032948194601F07EF94FF48043BB
:102CC800BB6107F118032548194601F075F94FF45F
:102CD8000073BB6102237B7701233B770023BB771B
:102CE8000123FB7707F118031C48194601F064F922
:102CF8001A480D21052201F023FA18480F21052250
:102D080001F01EFA15480E21052201F019FA00F00B
:102D18004DF80023BB804FF48273FB8000233B8176
:102D280000237B810023BB814FF40073FB810823C0
:102D38003B8200237B820723BB823B1D0848194640
:102D480001F062FB064B1B889AB2064B1A800448B6
:102D5800012101F09DFB2037BD4680BD00040240E3
:102D680000380040140D002080B500AF022000F0AC
:102D78002FFD0B4B0A4A128892B222F0400292B2FF
:102D88001A80074B074A128892B242F0400292B268
:102D98001A8005484FF4007101F0C4F980BD00BFE6
:102DA80000380040140D00200004024080B500AF38
:102DB80005484FF4007101F0A7F9022000F040FD2A
:102DC80002F0A6F880BD00BF0004024080B483B0C2
:102DD80000AF174B7B60174B1B78002B00D122E00C
:102DE8007B681A68144B1A607B6804337B607B68C5
:102DF8001A68124B1A607B6804337B607B681A6818
:102E08000F4B1A607B6804337B607B681A680D4B34
:102E18001A607B6804337B607B681A680A4B1A6007
:102E28007B6804337B600C37BD465DF8047B7047D4
:102E380000800008D80100207C01002080010020CB
:102E480084010020880100208C01002080B582B018
:102E580000AF314B7B600923FB70304B1B78002B94
:102E680000D155E000F08CFFF12001F041F810206E
:102E7800022100F0A9FF0346FB70FB78092BFCD167
:102E8800274B1B687868194600F0FEFF0346FB7065
:102E9800FB78092BFCD17B6804337B60214B1B68D2
:102EA8007868194600F0F0FF0346FB70FB78092BA1
:102EB800FCD17B6804337B601B4B1B687868194620
:102EC80000F0E2FF0346FB70FB78092BFCD17B681E
:102ED80004337B60154B1B687868194600F0D4FFF3
:102EE8000346FB70FB78092BFCD17B6804337B60BD
:102EF8000F4B1B687868194600F0C6FF0346FB7045
:102F0800FB78092BFCD17B6804337B6000F04EFF13
:102F18000837BD4680BD00BF00800008D8010020EA
:102F28007C0100208001002084010020880100200D
:102F38008C01002080B500AF294B09221A7000F0DF
:102F48001FFFF12000F0D4FF1820022100F03CFF01
:102F580003461A46224B1A702020022100F034FF43
:102F680003461A461E4B1A702820022100F02CFF37
:102F780003461A461A4B1A703020022100F024FF2B
:102F880003461A46164B1A703820022100F01CFF1F
:102F980003461A46124B1A704020022100F014FF13
:102FA80003461A460E4B1A704820022100F00CFF07
:102FB80003461A460A4B1A705020022100F004FFFB
:102FC80003461A46064B1A705820022100F0FCFEF0
:102FD80003461A46024B1A7000F0E8FE80BD00BF97
:102FE8009401002080B582B000AF786000F02CF921
:102FF8002C4B20221A602C4B00221A600CE02A4B22
:103008001B681A037B681344184600F051F9264BD5
:103018001B685A1C244B1A60234B1A68214B1B68E7
:103028009A42ECD3214B224A1A60224B7A681A60E2
:1030380030E01E4B1B681A681F4B1A601B4B1B683D
:103048001A1D1A4B1A601C4B1B68DAB21B4B1A70FC
:10305800194B1B6803F47F431B0ADAB2174B5A70EB
:10306800154B1B6803F47F031B0CDAB2134B9A70E1
:10307800114B1B681B0EDAB2104BDA700D4B1B6834
:103088000E481946042200F0C5F90A4B1B681A1DA0
:10309800084B1A60054B1A68094B9A42C9D9083778
:1030A800BD4680BD18020020140200200402002042
:1030B80000C00008080200200C020020100D0020AB
:1030C800FEFF0F0880B582B000AF786000F0BCF852
:1030D800FFF730FF234B244A1A60244B7A681A60A2
:1030E80000F04EFE2EE0214B1B68214819460422B1
:1030F80000F0D0F91D4B1B681A1D1C4B1A601C4BA5
:103108001B781A461A4B5B781B021A43184B9B789C
:103118001B041A43164BDB781B0613431A46154B40
:103128001A60104B1A68134B1B681046194600F0BA
:10313800ABFE03461A46104B1A700A4B1B681A1D41
:10314800084B1A60074B1A680C4B9A4204D80A4B72
:103158001B78DBB2092BC6D000F028FE0837BD4625
:1031680080BD00BF0402002000C000080802002043
:10317800100D00200C02002094010020FEFF0F0813
:1031880080B500AF4FF40030FFF79CFF034B4FF0C2
:10319800FF321A6000F038F880BD00BF8C010020B3
:1031A80080B500AF4FF48020FFF78CFF00F02CF8BB
:1031B80080BD00BF80B500AF4FF48020FFF712FF3D
:1031C8000A4B45F255521A60FFF740FE0A2045F2B5
:1031D800555101F0E9F84FF4C020FFF773FF044B95
:1031E80001221A6000F010F880BD00BF84010020A1
:1031F8008801002080B500AF024B00221A60FFF75B
:1032080025FE80BD8801002080B500AF064B4FF435
:10321800A0421A60FFF71AFE0A204FF4A04101F0FD
:10322800C3F8FFF7ABF880BD8401002080B400AF7D
:10323800044B1B685A1C034B1A60BD465DF8047B9F
:10324800704700BF1C02002080B582B000AF002389
:103258007B60FFF70DFD00F0A5F900F04FF97860ED
:103268007A68114B9A4203D07A68104B9A4217D168
:10327800FFF77AFD802000F065F9FFF797FDFFF76B
:1032880073FD502000F05EF9FFF790FDFFF76CFD2D
:10329800012000F057F9002000F054F9FFF786FDEF
:1032A8000837BD4680BD00BF8D25BF004125BF0042
:1032B80080B582B000AF786000F06AF9FFF754FD7E
:1032C800202000F03FF97B6803F47F031B0CDBB27E
:1032D800184600F037F97B6803F47F431B0ADBB21A
:1032E800184600F02FF97B68DBB2184600F02AF97F
:1032F800FFF75CFD00F060F90837BD4680BD00BFF0
:1033080080B582B000AF78600B46FB7000F040F9E2
:10331800FFF72AFD022000F015F97B6803F47F030C
:103328001B0CDBB2184600F00DF97B6803F47F43F1
:103338001B0ADBB2184600F005F97B68DBB21846B9
:1033480000F000F9FB78184600F0FCF8FFF72EFDB6
:1033580000F032F90837BD4680BD00BF80B584B0A3
:1033680000AFF860B9607A6000F012F9FFF7FCFC72
:10337800AD2000F0E7F8BB6803F47F031B0CDBB259
:10338800184600F0DFF8BB6803F47F431B0ADBB282
:10339800184600F0D7F8BB68DBB2184600F0D2F840
:1033A800FB685A1CFA601B78184600F0CBF8FB68DB
:1033B8005A1CFA601B78184600F0C4F87B68023B78
:1033C8007B60FFF7F3FC00F0F7F819E0FFF7CCFC9F
:1033D800AD2000F0B7F8FB685A1CFA601B78184655
:1033E80000F0B0F8FB685A1CFA601B78184600F029
:1033F800A9F87B68023B7B60FFF7D8FC00F0DCF89B
:103408007B68002BE2D1FFF7D1FC00F0CBF8103736
:10341800BD4680BD80B586B000AFF860B9607A60FF
:10342800BB6803F00103002B0DD0FB685A1CFA603F
:103438001B78B8681946FFF763FFBB680133BB60A8
:103448007B68013B7B607B6823F001037B617B69C0
:10345800002B08D0F868B9687A69FFF77FFF7A68A7
:103468007B69D31A7B607B68002B0FD0FA687B6975
:103478001344FB60BA687B691344BB60FB685A1C41
:10348800FA601B78B8681946FFF73AFF1837BD4647
:1034980080BD00BF90B585B000AFF860B9607A60B4
:1034A800FFF762FC032000F04DF8BB6803F47F03CC
:1034B8001B0CDBB2184600F045F8BB6803F47F43E9
:1034C8001B0ADBB2184600F03DF8BB68DBB21846B1
:1034D80000F038F80AE0FC68631CFB60FF2000F08D
:1034E80031F8034623707B68013B7B607B68002BC7
:1034F800F1D1FFF75BFC1437BD4690BD80B582B0B3
:1035080000AFFFF731FC9F2000F01CF8FF2000F00F
:1035180019F803463B71FF2000F014F803467B714D
:10352800FF2000F00FF80346BB71FFF73FFC3B7923
:103538001A047B791B021A43BB79134318460837D0
:10354800BD4680BD80B582B000AF0346FB7100BFA9
:103558000E48022100F0D8FF0346002BF8D0FB7973
:103568009BB20A48194600F0C1FF00BF0748012175
:1035780000F0CAFF0346002BF8D0044800F0A8FF6B
:103588000346DBB218460837BD4680BD0038004008
:1035980080B500AFFFF7E8FB0620FFF7D3FFFFF782
:1035A80005FC80BD80B500AFFFF7DEFB0420FFF708
:1035B800C9FFFFF7FBFB80BD80B582B000AF0023D9
:1035C800FB71FFF7D1FB0520FFF7BCFFFF20FFF7DA
:1035D800B9FF0346FB71FB7903F00103002BF5D11A
:1035E800FFF7E4FB0837BD4680BD00BF80B500AFDC
:1035F800154B154AD2F8882042F47002C3F8882087
:10360800124B124A126842F001021A600F4B002254
:103618009A600E4A0D4B1B6823F0847323F48033A1
:1036280013600A4B0A4A5A60084B084A126822F487
:1036380080221A60054B0022DA6000F00BF8024B7A
:103648004FF000629A6080BD00ED00E00038024053
:103658001030002480B483B000AF00237B600023C7
:103668003B60414B404A126842F480321A603E4B3C
:103678001B6803F400333B607B6801337B603B6865
:10368800002B03D17B68B3F5A04FF0D1364B1B68F4
:1036980003F40033002B02D001233B6001E0002338
:1036A8003B603B68012B42D12F4B2F4A126C42F0F2
:1036B80080521A642D4B2D4A126842F440421A6017
:1036C800294B294A92689A60274B274A926842F404
:1036D80000429A60244B244A926842F4A0529A60AD
:1036E800214B234A5A60204B1F4A126842F08072CD
:1036F8001A6000BF1C4B1B6803F00073002BF9D045
:103708001C4B40F205621A60174B174A926822F068
:1037180003029A60144B144A926842F002029A60BB
:1037280000BF114B9B6803F00C03082BF9D10E4B1B
:103738000D4A926822F400029A600B4B0E4AC3F8B5
:103748008420094B084A126842F080621A6000BF60
:10375800054B1B6803F00063002BF9D00C37BD46FE
:103768005DF8047B704700BF0038024000700040DD
:1037780008544007003C02400030005080B483B039
:1037880000AF7860BFF35F8F104B1A687B689A426E
:1037980012D07A680D4BBFF35F8F53E8001F0029E2
:1037A80003D143E800200028F7D1BFF35F8F14BF8F
:1037B80000230123002B01D0012300E00023184639
:1037C8000C37BD465DF8047B704700BF200200201F
:1037D80080B582B000AF786000BF7868FFF7CEFF91
:1037E8000346002BF9D00837BD4680BD80B483B0AE
:1037F80000AF7860BFF35F8F104B1B68002B14D0AD
:103808007A680E4B0021BFF35F8F53E8000F904298
:1038180004D143E8001CBCF1000FF6D1BFF35F8F61
:1038280014BF00230123002B01D0012300E0002353
:1038380018460C37BD465DF8047B7047200200200F
:1038480080B582B000AF786000BF7868FFF7CEFF20
:103858000346002BF9D00837BD4680BD80B483B03D
:1038680000AF7860054A7B6843F0BF6343F40033D8
:10387800D3600C37BD465DF8047B704700ED00E06F
:1038880080B485B000AF78600023FB730023BB735E
:103898000F237B737B68DB78002B37D0254BDB68E5
:1038A800DB4303F4E0631B0AFB73FB7BC3F10403F4
:1038B800BB737A7BFB7B42FA03F37B737B685B7891
:1038C8001A46BB7B02FA03F3FB737B689A787B7B0F
:1038D8001340DAB2FB7B1343FB73FB7B1B01FB73C7
:1038E800154A7B681B781344FA7B83F80023124B34
:1038F8007A6812785209D2B27968097801F01F0102
:10390800012000FA01F143F822100EE00A4B7A6810
:1039180012785209D2B27968097801F01F010120A2
:1039280000FA01F1203243F822101437BD465DF841
:10393800047B704700ED00E000E100E080B483B054
:1039480000AF78607B681B6823F001027B681A600F
:103958007B6800221A607B6800225A607B6800221C
:103968009A607B680022DA607B6800221A617B68B3
:1039780021225A617A68454B9A4203D1444B3D2231
:103988009A607EE07A68434B9A4204D1404B4FF4E8
:1039980074629A6075E07A683F4B9A4204D13C4B56
:1039A8004FF474129A606CE07A683C4B9A4204D1E6
:1039B800374B4FF074629A6063E07A68384B9A42EA
:1039C80003D1334B374ADA605BE07A68364B9A4268
:1039D80003D12F4B354ADA6053E07A68344B9A4268
:1039E80003D12B4B334ADA604BE07A68324B9A4268
:1039F80004D1274B4FF03D52DA6042E07A682F4BF2
:103A08009A4203D12E4B3D229A603AE07A682D4BB8
:103A18009A4204D12A4B4FF474629A6031E07A6872
:103A2800294B9A4204D1264B4FF474129A6028E02D
:103A38007A68264B9A4204D1214B4FF074629A60FF
:103A48001FE07A68224B9A4203D11D4B154ADA606F
:103A580017E07A681F4B9A4203D1194B134ADA6070
:103A68000FE07A681C4B9A4203D1154B114ADA6071
:103A780007E07A68194B9A4203D1114B4FF03D5237
:103A8800DA600C37BD465DF8047B70471060024071
:103A980000600240286002404060024058600240D6
:103AA800706002403D00002088600240400F002006
:103AB800A060024000003D20B8600240106402404F
:103AC8000064024028640240406402405864024096
:103AD8007064024088640240A0640240B8640240F6
:103AE80080B485B000AF786039600023FB607B68E4
:103AF8001B68FB60FA68244B1340FB603B681A683C
:103B08003B68DB681A433B685B691A433B689B69FF
:103B18001A433B68DB691A433B681B6A1A433B68D4
:103B28005B6A1A433B689B6A1A433B685B6B1A43A0
:103B38003B689B6B1343FA681343FB607B68FA6826
:103B48001A607B685B69FB60FB6823F00703FB6016
:103B58003B68DA6A3B681B6B1343FA681343FB60E4
:103B68007B68FA685A613B681A697B685A603B68E7
:103B78005A687B689A603B689A687B68DA60143791
:103B8800BD465DF8047B70473F801CF080B483B06D
:103B980000AF78600B46FB70FB78002B06D07B6883
:103BA8001B6843F001027B681A6005E07B681B68AC
:103BB80023F001027B681A600C37BD465DF8047B70
:103BC800704700BF80B485B000AFF860B960134695
:103BD800FB71BB6803F08003002B0FD0FB79002B2F
:103BE80006D0FB685B6943F08002FB685A6105E018
:103BF800FB685B6923F08002FB685A61BB68802B15
:103C080014D0FB79002B08D0FB681A68BB6803F056
:103C18001E031A43FB681A6008E0FB681A68BB6851
:103C280003F01E03DB431A40FB681A601437BD46D5
:103C38005DF8047B704700BF80B485B000AF786042
:103C48000023FB60324BFB607B689B79002B4DD0D7
:103C58002F4B2F4A11687A681268D2430A401A60BB
:103C68002B4B2B4A51687A681268D2430A405A6033
:103C78007B681B79FA681344FB60FB68FA68116873
:103C88007A6812680A431A60214B214A91687A6857
:103C98001268D2430A409A601D4B1D4AD1687A685F
:103CA8001268D2430A40DA607B685B79102B0ED128
:103CB800174B174A91687A6812680A439A60144B3E
:103CC800134AD1687A6812680A43DA601BE0104B1D
:103CD800FB607B685B79FA681344FB60FB68FA68F1
:103CE80011687A6812680A431A600CE07B681B79CD
:103CF800FA681344FB60FB68FA6811687A6812680E
:103D0800D2430A401A601437BD465DF8047B7047F9
:103D1800003C014080B483B000AF7860034B7A6800
:103D28005A610C37BD465DF8047B7047003C014082
:103D380080B485B000AF78600023FB73084B5A69E4
:103D48007B681340002B02D00123FB7301E00023A2
:103D5800FB73FB7B18461437BD465DF8047B704740
:103D6800003C014080B483B000AF7860034B7A68B0
:103D78005A610C37BD465DF8047B7047003C014032
:103D880080B400AF064B1B69002B05DA044B054ACB
:103D98005A60034B044A5A60BD465DF8047B70477D
:103DA800003C024023016745AB89EFCD80B400AFEA
:103DB800044B044A126942F000421A61BD465DF89C
:103DC800047B7047003C024080B584B000AF786047
:103DD8000B46FB700023FB600923FB72FB78002B6A
:103DE80002D10023FB6010E0FB78012B03D14FF4D4
:103DF8008073FB6009E0FB78022B03D14FF400735A
:103E0800FB6002E04FF44073FB6000F0BDF803462E
:103E1800FB72FB7A092B2FD11A4B1A4A126922F42A
:103E280040721A61174B174A1169FA680A431A61F6
:103E3800144B144A126922F0F8021A61114B114A04
:103E480011697A680A4342F002021A610D4B0D4A61
:103E5800126942F480321A6100F096F80346FB7248
:103E6800084B084A126922F002021A61054B054AFA
:103E7800126922F0F8021A61FB7A18461037BD461B
:103E880080BD00BF003C024080B584B000AF7860C0
:103E980039600923FB7300F077F80346FB73FB7B5B
:103EA800092B1ED1114B114A126922F440721A6172
:103EB8000E4B0E4A126942F400721A610B4B0B4A00
:103EC800126942F001021A617B683A681A6000F0D0
:103ED8005BF80346FB73054B044A126922F00102A2
:103EE8001A61FB7B18461037BD4680BD003C024076
:103EF80080B483B000AF7860034B7A68DA600C371F
:103F0800BD465DF8047B7047003C024080B483B036
:103F180000AF0923FB711B4BDB6803F48033002BD4
:103F280002D00123FB7125E0164BDB6803F0100378
:103F3800002B02D00623FB711CE0124BDB6803F454
:103F48008073002B02D00223FB7113E00D4BDB685A
:103F580003F0EF03002B02D00723FB710AE0094BA3
:103F6800DB6803F00203002B02D00823FB7101E099
:103F78000923FB71FB7918460C37BD465DF8047BB5
:103F8800704700BF003C024080B582B000AF0923F3
:103F9800FB71FFF7BBFF0346FB7103E0FFF7B6FFBA
:103FA8000346FB71FB79DBB2012BF7D0FB79DBB25F
:103FB80018460837BD4680BD80B487B000AF78602A
:103FC800396000237B6100233B610023FB600023F1
:103FD8007B6176E07B69012202FA03F33B613B686F
:103FE8001A683B691340FB60FA683B699A4265D1DD
:103FF8007B681A687B695B00032101FA03F3DB43E2
:104008001A407B681A607B681A683B681B791946F6
:104018007B695B0001FA03F31A437B681A603B680B
:104028001B79012B03D03B681B79022B2ED17B68AF
:104038009A687B695B00032101FA03F3DB431A40AA
:104048007B689A607B689A683B685B7919467B69EC
:104058005B0001FA03F31A437B689A607B685A682D
:104068007B699BB2012101FA03F3DB431A407B68A9
:104078005A607B685A683B689B7919467B699BB292
:1040880001FA03F39BB21A437B685A607B68DA68CB
:104098007B699BB25B00032101FA03F3DB431A40FF
:1040A8007B68DA607B68DA683B68DB7919467B698C
:1040B8005B0001FA03F31A437B68DA607B6901331A
:1040C8007B617B690F2B85D91C37BD465DF8047B66
:1040D800704700BF80B485B000AF78600B467B8026
:1040E8000023FB737B681A697B881340002B02D07E
:1040F8000123FB7301E00023FB73FB7B1846143795
:10410800BD465DF8047B704780B483B000AF78602B
:104118000B467B807B687A881A830C37BD465DF82E
:10412800047B704780B483B000AF78600B467B8017
:104138007B687A885A830C37BD465DF8047B7047E4
:1041480080B485B000AF786013460A467A807B70E9
:104158000023FB600023BB607A787B8803F00703A9
:104168009B0002FA03F3FB607B88DB089BB21A46CC
:104178007B88DB089BB219467B68083153F821100D
:104188007B8803F007039B000F2000FA03F3DB434F
:1041980019407B68083243F822107B88DB089BB201
:1041A8001A467B68083253F82220FB681343BB6029
:1041B8007B88DB089BB21A467B680832B96843F8EB
:1041C80022101437BD465DF8047B704780B483B075
:1041D80000AF0346FB71044BFA791A600C37BD46F1
:1041E8005DF8047B704700BF20000E4280B400AF2A
:1041F8000B4B0B4A126842F004021A60084B084A3B
:10420800126842F002021A60064B064A126942F02E
:1042180004021A6130BFBD465DF8047B704700BFD9
:104228000070004000ED00E080B483B000AF78601B
:104238000B46FB70FB78002B06D0094B084A116B24
:104248007A680A431A6306E0054B054A116B7A68D7
:10425800D2430A401A630C37BD465DF8047B7047A9
:104268000038024080B483B000AF78600B46FB7022
:10427800FB78002B06D0094B084A516B7A680A4331
:104288005A6306E0054B054A516B7A68D2430A40E7
:104298005A630C37BD465DF8047B7047003802400E
:1042A80080B483B000AF78600B46FB70FB78002BBE
:1042B80006D0094B084A116C7A680A431A6406E06A
:1042C800054B054A116C7A68D2430A401A640C37C8
:1042D800BD465DF8047B70470038024080B483B067
:1042E80000AF78600B46FB70FB78002B06D0094BBB
:1042F800084A516C7A680A435A6406E0054B054A35
:10430800516C7A68D2430A405A640C37BD465DF84E
:10431800047B70470038024080B487B000AF034682
:10432800FB710023FB6000237B610023FB74FB7996
:104338005B09DBB2FB60FB68012B03D1124B1B68E6
:104348007B6109E0FB68022B03D10F4B1B6F7B617C
:1043580002E00D4B5B6F7B61FB7903F01F03FB6091
:10436800FB687A6922FA03F303F00103002B02D0F9
:104378000123FB7401E00023FB74FB7C18461C3707
:10438800BD465DF8047B70470038024080B400AF3A
:10439800044B044A526F42F080725A67BD465DF87A
:1043A800047B70470038024080B485B000AF786065
:1043B80039600023FB60074BFB607B689A00FB6851
:1043C8001344FB60FB683A681A601437BD465DF811
:1043D800047B70475028004080B485B000AF7860F7
:1043E8000023FB60074BFB607B689A00FB68134463
:1043F800FB60FB681B6818461437BD465DF8047BF4
:10440800704700BF5028004080B485B000AF786086
:1044180039600023FB817B681B88FB81FB8903F4DF
:104428004153FB813B681A883B685B8813439AB207
:104438003B689B8813439AB23B68DB8813439AB264
:104448003B681B8913439AB23B685B8913439AB252
:104458003B689B8913439AB23B68DB8913439AB242
:10446800FB891343FB817B68FA891A807B689B8BE5
:104478009BB223F400639AB27B689A833B681A8ADA
:104488007B681A821437BD465DF8047B704700BF0D
:1044980080B483B000AF78600B46FB70FB78002BCC
:1044A80008D07B681B889BB243F040039AB27B68B4
:1044B8001A8007E07B681B889BB223F040039AB2FE
:1044C8007B681A800C37BD465DF8047B704700BFD7
:1044D80080B483B000AF78607B689B899BB2184634
:1044E8000C37BD465DF8047B704700BF80B483B0CD
:1044F80000AF78600B467B807B687A889A810C379E
:10450800BD465DF8047B704780B485B000AF786025
:104518000B467B800023FB737B681B899AB27B88E0
:1045280013409BB2002B02D00123FB7301E0002350
:10453800FB73FB7B18461437BD465DF8047B704758
:1045480080B485B000AF786039600023FB817B6858
:104558001B88FB817A68284B9A4213D07A68274BCC
:104568009A420FD07B68B3F1804F0BD07A68244B06
:104578009A4207D07A68234B9A4203D07A68224B32
:104588009A4208D1FB8923F07003FB813B685A8863
:10459800FB891343FB817A681C4B9A420CD07A68DA
:1045A8001B4B9A4208D0FB8923F44073FB813B687C
:1045B8001A89FB891343FB817B68FA891A803B6857
:1045C8005A687B68DA623B681A887B681A857A6859
:1045D800094B9A4203D07A68084B9A4204D13B6847
:1045E8009B7A1A467B681A867B6801229A8214375E
:1045F800BD465DF8047B704700000140000401409F
:104608000004004000080040000C0040001000407A
:104618000014004080B483B000AF78607B684FF02E
:10462800FF325A607B6800221A807B6800221A8158
:104638007B6800225A807B6800229A720C37BD463C
:104648005DF8047B704700BF80B483B000AF78602A
:104658000B46FB70FB78002B08D07B681B889BB24D
:1046680043F080039AB27B681A8007E07B681B8856
:104678009BB223F080039AB27B681A800C37BD4640
:104688005DF8047B704700BF80B483B000AF7860EA
:104698000B46FB70FB78002B08D07B681B889BB20D
:1046A80043F001039AB27B681A8007E07B681B8895
:1046B8009BB223F001039AB27B681A800C37BD467F
:1046C8005DF8047B704700BF80B485B000AF7860A8
:1046D800396000237B810023FB810023BB817B6839
:1046E8001B8C9BB223F001039AB27B681A847B6807
:1046F8001B8CFB817B689B88BB817B681B8B7B81C8
:104708007B8923F070037B817B8923F003037B8102
:104718003B681A887B8913437B81FB8923F002035A
:10472800FB813B689A89FB891343FB813B685A8864
:10473800FB891343FB817A681E4B9A4203D07A683F
:104748001D4B9A4223D1FB8923F00803FB813B6868
:10475800DA89FB891343FB81FB8923F00403FB817E
:104768003B689A88FB891343FB81BB8923F48073D8
:10477800BB81BB8923F40073BB813B681A8ABB8960
:104788001343BB813B685A8ABB891343BB817B684F
:10479800BA899A807B687A891A833B689A687B68A9
:1047A8005A637B68FA891A841437BD465DF8047B1E
:1047B800704700BF000001400004014080B485B08C
:1047C80000AF7860396000237B810023FB810023E0
:1047D800BB817B681B8C9BB223F010039AB27B6869
:1047E8001A847B681B8CFB817B689B88BB817B68F8
:1047F8001B8B7B817B8923F4E0437B817B8923F4BA
:1048080040737B813B681B881B029AB27B891343E8
:104818007B81FB8923F02003FB813B689B891B017B
:104828009AB2FB891343FB813B685B881B019AB2F0
:10483800FB891343FB817A68224B9A4203D07A683A
:10484800214B9A422BD1FB8923F08003FB813B68E3
:10485800DB891B019AB2FB891343FB81FB8923F097
:104868004003FB813B689B881B019AB2FB89134379
:10487800FB81BB8923F48063BB81BB8923F400637C
:10488800BB813B681B8A9B009AB2BB891343BB81DF
:104898003B685B8A9B009AB2BB891343BB817B68E8
:1048A800BA899A807B687A891A833B689A687B6898
:1048B8009A637B68FA891A841437BD465DF8047BCD
:1048C800704700BF000001400004014080B485B07B
:1048D80000AF7860396000237B810023FB810023CF
:1048E800BB817B681B8C9BB223F480739AB27B6874
:1048F8001A847B681B8CFB817B689B88BB817B68E7
:104908009B8B7B817B8923F070037B817B8923F0E0
:1049180003037B813B681A887B8913437B81FB896E
:1049280023F40073FB813B689B891B029AB2FB89C5
:104938001343FB813B685B881B029AB2FB891343D4
:10494800FB817A68224B9A4203D07A68214B9A42BB
:104958002BD1FB8923F40063FB813B68DB891B02B5
:104968009AB2FB891343FB81FB8923F48063FB81A3
:104978003B689B881B029AB2FB891343FB81BB8966
:1049880023F48053BB81BB8923F40053BB813B686C
:104998001B8A1B019AB2BB891343BB813B685B8AA4
:1049A8001B019AB2BB891343BB817B68BA899A8081
:1049B8007B687A899A833B689A687B68DA637B6844
:1049C800FA891A841437BD465DF8047B704700BF26
:1049D800000001400004014080B485B000AF786059
:1049E80039600023BB8100237B810023FB817B6826
:1049F8001B8C9BB223F480539AB27B681A847B6821
:104A08001B8C7B817B689B88FB817B689B8BBB8134
:104A1800BB8923F4E043BB81BB8923F44073BB818A
:104A28003B681B881B029AB2BB891343BB817B89F5
:104A380023F400537B813B689B891B039AB27B89D3
:104A480013437B813B685B881B039AB27B891343C2
:104A58007B817A68114B9A4203D07A68104B9A424C
:104A68000AD1FB8923F48043FB813B681B8A9B01A5
:104A78009AB2FB891343FB817B68FA899A807B6829
:104A8800BA899A833B689A687B681A647B687A89D2
:104A98001A841437BD465DF8047B70470000014056
:104AA8000004014080B483B000AF78607B680022C6
:104AB8001A807B6800225A807B6800229A807B6873
:104AC80000229A607B6800229A817B680022DA8142
:104AD8007B6800221A827B6800225A820C37BD4606
:104AE8005DF8047B704700BF80B485B000AF786084
:104AF8000B467B800023FB817B681B8BFB81FB893A
:104B080023F00803FB81FA897B881343FB817B68C8
:104B1800FA891A831437BD465DF8047B704700BFD5
:104B280080B485B000AF78600B467B800023FB81A2
:104B38007B681B8BFB81FB8923F40063FB817B88EB
:104B48001B029AB2FB891343FB817B68FA891A839B
:104B58001437BD465DF8047B704700BF80B485B04C
:104B680000AF78600B467B800023FB817B689B8BC2
:104B7800FB81FB8923F00803FB81FA897B881343B7
:104B8800FB817B68FA899A831437BD465DF8047BFC
:104B9800704700BF80B485B000AF78600B467B805B
:104BA8000023FB817B689B8BFB81FB8923F40063DB
:104BB800FB817B881B029AB2FB891343FB817B68CC
:104BC800FA899A831437BD465DF8047B704700BFA5
:104BD80080B483B000AF78600B46FB70FB78002B85
:104BE8000CD07B68B3F844309BB26FEA43436FEA5A
:104BF80053439AB27B68A3F8442009E07B68B3F872
:104C080044309BB2C3F30E039AB27B68A3F84420E6
:104C18000C37BD465DF8047B704700BF80B483B095
:104C280000AF786013460A467A807B707B78002B49
:104C380008D07B689B899AB27B8813439AB27B68B9
:104C48009A8109E07B689B899AB27B88DB439BB297
:104C580013409AB27B689A810C37BD465DF8047B95
:104C6800704700BF80B485B000AF78600B467B808A
:104C78000023FB730023BB8100237B817B681B8A95
:104C88009AB27B881340BB817B689B899AB27B88E8
:104C980013407B81BB89002B05D07B89002B02D078
:104CA8000123FB7301E00023FB73FB7B18461437D9
:104CB800BD465DF8047B704780B483B000AF786070
:104CC8000B467B807B88DB439AB27B681A820C3761
:104CD800BD465DF8047B704790B484B000AF0246CF
:104CE8000B46FA71BB710023FB60BB7903F0030329
:104CF8009B000F2202FA03F3FB60154BBA79920866
:104D0800D2B21349B8798008C0B2023051F82000F5
:104D1800F968C9430140023243F822100C4BBA79B2
:104D28009208D2B20A49B8798008C0B2023051F864
:104D38002000FC79B97901F00301890004FA01F136
:104D48000143023243F822101037BD4690BC704729
:104D58000038014080B483B000AFEFF310833B60AC
:104D68003B687B6072B67B6818460C37BD465DF8B9
:104D7800047B704780B485B000AF78607B6803F02F
:104D88000103002B14BF00230123DBB2FB607B6807
:104D980003F00103002B00D162B6FB6818461437F4
:104DA800BD465DF8047B704780B582B000AFFFF761
:104DB800D1FF7860054B1B7AFB707868FFF7DAFF44
:104DC800FB7818460837BD4680BD00BF180D002087
:104DD80080B584B000AF02460B46FA71BB71FFF78D
:104DE800B9FFF8600C4B1B7AFB720B4BFA791A72FD
:104DF800BB79012B02D0022B03D005E0FDF708FF99
:104E080002E0FDF727FF00BFF868FFF7B3FFFB7A62
:104E180018461037BD4680BD180D002080B584B0F7
:104E280000AF0346FB710123FB60FFF793FFB860F7
:104E38000F4B1B7ADBB2FA799A4214BF0023012385
:104E4800DBB2FB60B868FFF795FFFB68002B03D067
:104E5800074B5B69002BE8D0054B5B69002B14BF3F
:104E680000230123DBB218461037BD4680BD00BFC2
:104E7800180D002080B586B000AFB9607A603B603D
:104E88000346FB73FFF790FF0346FB750020FDF711
:104E9800A9FEFB7B002B0ED17B689BB20120B96871
:104EA8001A46FDF749FE7B689BB2002015491A4651
:104EB800FDF742FE0FE0144B1A697B689BB2012094
:104EC80011461A46FDF738FE7B689BB20020B96888
:104ED8001A46FDF731FE0D4810210122FEF772FE39
:104EE8000120FDF77FFE3B68002B05D0FB7D1846AF
:104EF800FFF794FF034600E0002318461837BD4625
:104F080080BD00BFAC010020180D00207060024079
:104F180080B500AFFFF748FF03460A2B11D10120E7
:104F2800FEF72CFC0346002B0BD007200121FFF7CE
:104F38004FFF044B1B690020194605220023FFF789
:104F480099FF80BD180D00208000000100020004B8
:104F580000080010002000401000000010000000B1
:104F680010000000100000001000000010000000F9
:104F7800100000001000000000400002000800209F
:104F880008000000100000001000000010000000E1
:104F98000100000001000000000000000100000006
:104FA80000000000000000000600000053544D6996
:104FB80063726F656C656374726F6E6963730044C6
:104FC800465520696E204853206D6F64650044463D
:104FD8005520696E204653206D6F6465003030306F
:104FE80030303030303031304200303030303030D6
:104FF8003030303030310044465520436F6E66699A
:10500800670044465520496E7465726661636500A1
:1050180040496E7465726E616C20466C61736820DD
:1050280020202F307830383030303030302F303347
:105038002A3031364B612C30312A3031364B672CCF
:1050480030312A3036344B672C30372A3132384BDE
:1050580067004045787465726E616C20466C6173B8
:1050680068202F307830303030303030302F3531C4
:08507800322A3030344B67008E
:105080001201000200000040501D7F60000201027A
:105090000301040309040A060002000000400100A5
:1050A00075050008810500088D050008A9050008A0
:1050B000CD050008F10500080D060008400000209D
:1050C000DD0B0008290B0008DF0A00084F0A000862
:1050D000B10A0008330A00081D0A00085F0A000828
:1050E0006D0A00087B0A0008910A000809022400E2
:1050F000010102C0320904000000FE010206090499
:10510000000100FE01020709210BFF0000041A0143
:1051100000C00008090E0008DD0D00083D0F000862
:10512000290E0008A70D0008000000000000000084
:10513000000000000000000000000000AD0D0008AD
:10514000B90D0008D4000020F80000201850000815
:105150005A500008185000085B1D0008651D000823
:10516000B51D0008711D0008491D00084B1D0008F1
:1051700032000000320000005A500008791E00087A
:10518000691E0008831E00088D1E0008A51E000869
:105190006D1E0008140000001E000000BD1E000867
:1051A000BF1E0008C11E0008C31E0008C51E00085F
:1051B000C71E0008CD1E000800100240001002406B
:1051C0000010024000100240001002400010024097
:1051D0000010024000100240000C0240001002408B
:1051E00000100240001002406063FF000000024017
:1051F00000000000020000000C000000FFFFFFFFA5
:10520000FFFFFFFFFFFFFFFFFFFFFFFFFFFFFFFFAE
:10521000FFFFFFFF09000000007A030A0000000002
:105220000000000001020304060708090300000053
:04523000000000007A
:040000050800018866
:00000001FF
